:020000040800F2
:100000008008002061130008110200081302000894
:10001000170200081B0200081F0200080000000071
:1000200000000000000000000000000023020008A3
:10003000250200080000000027020008290200082D
:100040007B1300087B1300087B1300087B13000858
:100050007B1300087B1300087B1300087B13000848
:100060007B1300087B1300087B1300087B13000838
:100070007B1300087B1300087B1300087B13000828
:100080007B1300087B1300087B1300087B13000818
:100090007B1300087B1300087B1300087B13000808
:1000A0007B1300087B1300087B1300087B130008F8
:1000B0007B1300087B1300087B1300087B130008E8
:1000C0007B1300087B1300087B1300087B130008D8
:1000D0007B130008070A0008FD0800080D0400084B
:1000E0007B1300087B1300087B1300087B130008B8
:1000F0007B1300087B1300087B1300087B130008A8
:100100007B1300087B1300087B1300087B13000897
:100110007B1300087B1300087B1300087B13000887
:100120007B1300087B1300087B1300087B13000877
:1001300000F002F800F042F80AA090E8000C8244B7
:100140008344AAF10107DA4501D100F037F8AFF294
:10015000090EBAE80F0013F0010F18BFFB1A43F0A5
:10016000010318474022000060220000103A24BF1B
:1001700078C878C1FAD8520724BF30C830C144BF0C
:1001800004680C607047000000230024002500264E
:10019000103A28BF78C1FBD8520728BF30C148BFEA
:1001A0000B607047642901F06D87732902F0858028
:1001B000002070471FB51FBD10B510BD02F0BFF87D
:1001C0001146FFF7F7FF00F012F802F0DDF803B474
:1001D000FFF7F2FF03BC00F0EBFA10B500F01CFAD9
:1001E00000F0E8F900F031FA00F0FDF910BD10B5AB
:1001F0004FF4407001F0D4F800F068FA4FF4E130A9
:1002000000F0E5FAFFF7E9FF00F038FA002010BD32
:10021000704700BFFEE700BFFEE700BFFEE700BF7C
:10022000FEE7704770477047704700000CB500202C
:10023000019000906C48006840F480306A49086082
:1002400000BF6948006800F4003000900198401C2D
:100250000190009818B90198B0F5A06FF1D16248EB
:10026000006800F4003010B10120009001E000208F
:1002700000900098012843D15C48006840F01000CD
:100280005A4908600846006820F0030008600846E4
:10029000006840F0020008605348406852494860D6
:1002A0000846406848600846406840F480604860FE
:1002B0000846406820F47C1048600846406840F4D6
:1002C000E81048600846006840F08070086000BF91
:1002D0004548006800F000700028F9D042484068A6
:1002E00020F00300404948600846406840F00200A2
:1002F000486000BF3C48406800F00C000828F9D175
:100300000CBD10B5FFF792FF10BD10B53648006860
:1003100040F001003449086008464068344908400C
:100320003149486008460068324908402E49086053
:100330000846006820F4802008600846406820F4E1
:10034000FE0048604FF41F008860FFF7DAFF4FF0AF
:1003500000602949086010BD10B50021002000226E
:10036000214B5B6803F00C0121B1042906D0082958
:1003700028D107E0214B224C236027E01F4B204C63
:10038000236023E0184B5B6803F47010164B5B6826
:1003900003F48032022303EB904022B9194B43430C
:1003A000174C23600DE0104B5B6803F4003323B15E
:1003B000144B4343124C236003E0104B4343104C57
:1003C000236003E00D4B0E4C236000BF00BF064BC3
:1003D0005B68C3F303130C4CE15C094B1B68CB4017
:1003E000074C236010BD00000010024000200240B6
:1003F0000000FFF8FFFFF6FE08ED00E000127A00B3
:100400000400002000093D000800002010B540F263
:100410002551614801F072FD80B15F4801F0EEFCAA
:10042000C4B25E480078402808DA5D485B49097824
:1004300044545A480078401C5849087010BD10B503
:1004400086B004460121482001F034FB01218804D4
:1004500001F03DFB4FF40040ADF8140010208DF882
:10046000170003208DF8160005A94E4801F066F824
:100470004FF48060ADF8140018208DF8170005A91E
:10048000494801F05BF84FF40060ADF81400042017
:100490008DF8170005A9444801F050F801214804DF
:1004A00001F02FFB00214FF4003001F02AFB0194F2
:1004B0000020ADF80800ADF80A00ADF80C00ADF86A
:1004C00010000C20ADF80E0001A9334801F099FB93
:1004D00027208DF8000003208DF801008DF8020020
:1004E00001208DF80300684600F05FFF012240F212
:1004F0002551294801F01DFC0121274801F00DFC80
:1005000000202A49086006B010BD70B505460E46A9
:1005100001202649086000240CE000BF40211E484D
:1005200001F0D6FC0028F9D0295D214801F062FCD9
:10053000601CC4B2B442F0DB00BF4021164801F099
:10054000C7FC0028F9D0002014490870174908603A
:1005500070BD2DE9F04107460D461048067800248D
:10056000002028700A2000F0EEF80C48007886423F
:100570000FD176B100BF04E00948005D3855601C1A
:10058000C4B2B442F8DB0548007828700020034963
:100590000870BDE8F081000000480040180000200D
:1005A000580000200014014000080140BC01234213
:1005B0000044004008B50121042001F07BFA4FF40B
:1005C0008070ADF8000010208DF8030003208DF836
:1005D00002006946354800F0B1FF4FF4807133489E
:1005E00001F05BF808BD08B50121082001F062FAAE
:1005F0004FF48070ADF8000010208DF80300032048
:100600008DF8020069462A4800F098FF4FF4807187
:10061000274801F042F808BD08B50121102001F07B
:1006200049FA4FF46070ADF8000010208DF8030017
:1006300003208DF8020069461E4800F07FFF4FF44A
:10064000C0711C4801F029F808BD08B501214020FF
:1006500001F030FA40F20310ADF8000010208DF8E0
:10066000030003208DF802006946134800F066FF7E
:1006700040F20311104801F010F808BD10B500F069
:1006800096F900F0F8FA00F092F900F0F9FD00F0A8
:10069000E0FB00F08CF900F03EFD00F078F801215D
:1006A00006A000F0C1FD002010BD000000080140C0
:1006B000000C0140001001400018014063736963A1
:1006C0002E74616F62616F2E636F6D0010B56FF0F5
:1006D000040000F0B4FE314800683149B0FBF1F08D
:1006E000304908700846007800EB4001C1EBC010AB
:1006F0004FF6FF7101EAC0002B49088010BD01468A
:10070000284A12784A434FF0E0235A6100229A6146
:100710001A46126942F001021A6100BF4FF0E0224E
:10072000106900F001021AB100F48032002AF5D0FD
:100730004FF0E022126922F001024FF0E0231A612B
:1007400000229A6170470146174A12884A434FF0C7
:10075000E0235A6100229A611A46126942F00102AE
:100760001A6100BF4FF0E022106900F001021AB1D7
:1007700000F48032002AF5D04FF0E022126922F016
:1007800001024FF0E0231A6100229A6170470020B5
:100790000649087208604860C8607047040000207D
:1007A00000127A001A0000201C000020980000208F
:1007B000014600BF704700BFB74A128802F04002EE
:1007C000002AF9D0C2B2B44B1B1D1A80704710B575
:1007D00086B00446012144F2040001F06BF94FF4A5
:1007E0000070ADF8140003208DF8160018208DF865
:1007F000170005A9A94800F0A1FE4FF48060ADF8EC
:10080000140004208DF8170005A9A44800F096FEF6
:1008100025208DF8000004208DF8010000208DF8BF
:10082000020001208DF80300684600F0BEFD01942F
:100830000020ADF80800ADF80A00ADF80C00ADF8E6
:1008400010000C20ADF80E0001A9934801F0D9F971
:10085000012240F22551904801F06BFA01218E48A7
:1008600001F05BFA06B010BD10B586B00446012158
:100870008B4801F01FF90420ADF8140003208DF817
:10088000160018208DF8170005A9844800F056FEC0
:100890000820ADF8140004208DF8170005A97F4842
:1008A00000F04CFE26208DF8000005208DF8010098
:1008B00000208DF8020001208DF80300684600F04A
:1008C00074FD01940020ADF80800ADF80A00ADF801
:1008D0000C00ADF810000C20ADF80E0001A9714815
:1008E00001F08FF9012240F225516E4801F021FA02
:1008F00001216C4801F011FA06B010BD10B540F2AC
:100900002551684801F0FAFA10B3664801F076FA0A
:10091000C4B26548008800F40040C8B96248008845
:1009200000F4804060B10A2C03D000205E490880AA
:1009300020E05D48008840F400405B49088019E0F1
:100940000D2C06D15848008840F480405649088054
:1009500010E055480088C0F30D0054490C5452482B
:100960000088401C5049088008460088C72801DDDF
:100970000020088010BD10B5044600BF8021464805
:1009800001F0A6FA0028F9D02146434801F032FAD6
:1009900010BD10B5044600BF8021424801F098FA0E
:1009A0000028F9D021463F4801F024FA10BD70B567
:1009B00000245225002240F22551374801F0B9F9B0
:1009C00000BF03E000203A490855641CAC42F9D34B
:1009D000002037494865012240F225512E4801F098
:1009E000A8F970BD3249496D512903D30021304A1D
:1009F000516507E02E494A6D496D491C2C4B5965DC
:100A000019468854704710B540F22551224801F02C
:100A100075FA01280BD140F225511F4801F098FAD0
:100A20001D4801F0EBF9C4B22046FFF7DBFF0821B7
:100A3000194801F04DFA01280AD10821164801F0A1
:100A400054FA154801F0DAF9C4B22046FFF7CAFF9C
:100A500010BD10B5044603E014F8010BFFF78BFF3F
:100A600020780028F8D110BD10B5044603E014F832
:100A7000010BFFF78EFF20780028F8D110BD002170
:100A800007E0002200E0521C40F6B8339A42FAD345
:100A9000491C8142F5D370470038014000080140ED
:100AA0000400020000440040240000205401002003
:100AB000FC000020704710B5FFF779FFF3A0FFF7A7
:100AC000C8FF0120F649087010BD10B5F549F64879
:100AD00001F014FBF54908600846006840B1FFF7D3
:100AE00066FFF3A0FFF7B5FF0220ED49087005E0AF
:100AF000E6A0FFF7AEFF0020E9490870EB48006868
:100B000001F00EFB04462146E848006801F027FB8F
:100B100010BD10B5E349E44801F0F0FAE34908607C
:100B20000846006840B1FFF742FFE9A0FFF791FFD8
:100B30000320DB49087005E0DDA0FFF78AFF0120F4
:100B4000D7490870D948006801F0EAFA04462146FE
:100B5000D648006801F003FB10BD10B5D149D2485A
:100B600001F0CCFAD14908600846006840B1FFF7AF
:100B70001EFFD9A0FFF76DFF0820C949087005E0E6
:100B8000D3A0FFF766FF0220C5490870C748006878
:100B900001F0C6FA04462146C448006801F0DFFAB5
:100BA00010BD10B5C04880784F280FD1BE48C0781E
:100BB0004B280BD10120CA490870FFF7F8FE072027
:100BC000B7490870C7A0FFF744FF0BE041F2883037
:100BD000FFF755FFFFF7EBFE0820B1490870BEA0F4
:100BE000FFF737FF10BD10B50024C1A1AE4801F0DA
:100BF00085FA044644B1FFF7DAFE0920A8490870D7
:100C0000BCA0FFF726FF07E0FFF7D1FE0720A449AD
:100C10000870B4A0FFF71DFF10BD10B5A248407AC0
:100C2000302803D1A048C07A312817D09E48407A96
:100C3000302803D19C48C07A35280FD09A48407A92
:100C4000312803D19848C07A312807D09648407A95
:100C5000312807D19448C07A352803D10A20904919
:100C6000087007E0FFF7A3FE09208D490870A1A0D6
:100C7000FFF7EFFE10BD10B50020894908703AE07B
:100C80009F480068401C9E4908600846006847F27B
:100C90003051884209DD002099490860994908705F
:100CA0004FF47A70FFF7EBFE26E07D4800780B28C2
:100CB0001DD2DFE800F006090C0F1C1C1C151218D1
:100CC0001B00FFF7F8FE15E0FFF7FFFE12E0FFF74D
:100CD00020FF0FE0FFF741FF0CE0FFF762FF09E0A4
:100CE000FFF781FF06E0FFF798FF03E010BDFFF775
:100CF0005EFE00BF00BFC3E700BF00BFF6E710B550
:100D0000FFF755FE1520664908707AA0FFF7A1FE8F
:100D10004FF47A70FFF7B3FE10BD10B57AA16248A8
:100D200001F0ECF970B97BA15F4801F0E7F948B92F
:100D30007BA15D4801F0E2F920B97CA15A4801F09D
:100D4000DDF9A8B1FFF733FE1620554908707AA0E7
:100D5000FFF77FFE4FF47A70FFF791FEFFF727FE53
:100D600079A0FFF776FE4FF47A70FFF788FE08E06F
:100D7000FFF71DFE5FA0FFF76CFE4FF47A70FFF7E0
:100D80007EFE10BD10B5484880784F281DD14648DA
:100D9000C0784B2819D1FFF70AFE17204049087088
:100DA0006CA0FFF756FE4FF47A70FFF768FEFFF76E
:100DB000FEFD6EA0FFF74DFE4FF4FA60FFF75FFEF9
:100DC0004FF4FA60FFF75BFE08E0FFF7F0FD5EA06E
:100DD000FFF73FFE4FF47A70FFF751FE10BD10B5DC
:100DE0004FF4FA70FFF74BFE2F4880784F280CD154
:100DF0002D48C0784B2808D15FA0FFF735FEFFF7DC
:100E0000D6FD0E202649087022E04FF47A70FFF7D5
:100E100036FEFFF7CCFD4FA0FFF71BFE4FF47A70B4
:100E2000FFF72DFEFFF7C3FD4AA0FFF712FE4FF4B8
:100E30007A70FFF724FEFFF7BAFD4CA0FFF709FE1A
:100E40004FF4FA60FFF71BFE4FF4FA60FFF717FE4E
:100E500010BD10B52B48007800B910BD0A2010490C
:100E60000870B1E026480068401C25490860084623
:100E7000006847F23051884207DD002020490860B1
:100E800042F21070FFF7FBFD9FE07DE041542B51D3
:100E90004346473D617072656164790D0A00000048
:100EA0002800002034000020FC0000203C0000202E
:100EB00041542B515552434346473D22757263704E
:100EC0006F7274222C22555341525431220D0A0064
:100ED00041540D0A00000000415445300D0A000045
:100EE0003100002041542B4350494E3F0D0A000071
:100EF0004F4B000041542B435245473F0D0A000021
:100F000000000020300000202B435245473A20309B
:100F10002C3100002B435245473A20302C3500003D
:100F20002B435245473A20312C3100002B43524588
:100F3000473A20312C35000041542B5149434C4F46
:100F400053453D300000000041542B514943534765
:100F5000503D310041542B51494143543D3C636F56
:100F60006E7465787449443E0000000041542B5172
:100F700049414354000000004C54455F4143542014
:100F80004F4B200D0A000000BF48007815280DD0F7
:100F900004DC0A2807D00E2812D110E0162808D049
:100FA00017280DD108E0FFF7AAFE0CE0FFF7B5FE09
:100FB00009E0FFF7E7FE06E0FFF711FF03E04CE76B
:100FC000FFF7F5FC00BF00BF4CE700BF00BF44E7E0
:100FD00010B55420AD49096808714321AB48006839
:100FE00041715021A948006881717020A7490968A2
:100FF00008724A21A548006841722721A348006869
:1010000081721521A1480068C17240F601009F4914
:101010000968C8609D480268121D9DA10068523091
:1010200000F0BEFF99480268083299A10068243098
:1010300000F0B6FF9548006896A1C2689348006822
:101040004C3000F0ADFF10BD10B593A0FFF701FDCF
:101050002220FFF790FC8D4800685230FFF7F9FC22
:101060002220FFF788FC2C20FFF785FC2220FFF7C9
:1010700082FC864800682430FFF7EBFC2220FFF753
:101080007AFC2C20FFF777FC804800684C30FFF793
:10109000E0FC2C20FFF76FFC2220FFF76CFC2C20DB
:1010A000FFF769FC3120FFF766FC0D20FFF763FCBA
:1010B0000A20FFF760FC7BA000F066FF40F6B83026
:1010C000FFF7DDFC10BD10B5FFF771FC10206E4975
:1010D000087010BD10B5FFF76AFC11206A4908704E
:1010E00076A0FFF7B6FC78A0FFF7BEFC10BD10B5E8
:1010F000FFF75DFC14206449087078A000F044FFFD
:10110000FFF7A2FF40F6B830FFF7B9FC40F6B83061
:10111000FFF7B5FC10BD10B57548007800B910BDDB
:1011200033E074480068401C724908600846006853
:1011300047F23051884203DD00206E49086025E007
:101140004FF47A70FFF79BFC4F4800780E38072861
:1011500017D2DFE800F00416070A10130D00FFF79E
:10116000B2FF11E0FFF7B6FF0EE0FFF7C0FF0BE0A4
:1011700000F00FF808E0FFF71AFCD0E7FFF717FCC4
:10118000CDE7FFF714FC00BF00BFCAE700BF00BFF8
:10119000C5E770B500240025002640F6B830FFF7FB
:1011A0006EFC55A1584800F0A9FF044657A15648C7
:1011B00000F0A4FF054659A1534800F09FFF0646E2
:1011C0005AA000F0E1FE00205F49087034B11220FF
:1011D0002D49087001205C49087070BD04B93DB10B
:1011E00036B912202849087001205749087019E0C3
:1011F00056480068401C5549086041F28830FFF7A6
:101200003EFC524800681E2806D113201E49087073
:1012100000204E490860E0E7FFF7C9FBFFF719FE21
:10122000FFF779FF00BFD8E72DE9F04107460E46EA
:1012300015480078122801D0BDE8F081012044490A
:10124000087044A0FFF705FC4FF4FA60FFF757FA67
:1012500000250BE0002403E0385DFFF78CFB641CE5
:10126000384600F05DFFA042F6D86D1CB542F1D3C0
:101270001A20FFF780FB00203549087000BFDBE72C
:101280001B48007870470000280000202C00002038
:10129000257300002564000041542B51494F5045EF
:1012A0004E00000064657374696E6174696F6E202E
:1012B000616464726573733A0000000041542B51FD
:1012C000494143543F000000535F54435049505F2D
:1012D000424A5F414444520D0A000000535F5443A8
:1012E0005049505F434F4E4E4543540D0A00000095
:1012F00030000020000000202B51494F50454E3A4D
:1013000020302C3000000000FC0000202B51494F01
:1013100050454E3A20302C35363300002B51494F82
:1013200050454E3A20302C35363600000D0A535FBA
:101330005443505F49505F434F4E4E454354494ECE
:10134000472E2E2E0D0A0000320000204000002003
:101350003300002041542B514953454E44000000B6
:101360000948804709480047FEE7FEE7FEE7FEE739
:10137000FEE7FEE7FEE7FEE7FEE7FEE70448054975
:10138000054A064B704700000B03000831010008B6
:1013900080020020800800208004002080040020BB
:1013A00031490143314A1160704770B50021002373
:1013B0000F22C47804B32D4C246804F4E064C4F50F
:1013C000E064210AC1F10403CA40447804FA03F13D
:1013D0008478144021430901254C0678A1550478EE
:1013E00004F01F050124AC4005786D11AD0005F136
:1013F000E025C5F8004109E0047804F01F05012448
:10140000AC401C4D0678761145F8264070BD1A4A4E
:101410000A400243154B1B1F1A60704739B1134A2B
:10142000121D12680243114B1B1D1A6006E00F4A81
:10143000121D126882430D4B1B1D1A607047042851
:1014400008D14FF0E021096941F004014FF0E0229A
:10145000116107E04FF0E021096921F004014FF02C
:10146000E0221161704700000000FA050CED00E079
:1014700000E400E080E100E080FFFF1F10B50446BB
:10148000CC48844208D10121042000F02DFB00212A
:10149000042000F029FB46E0C748844208D101211E
:1014A000082000F021FB0021082000F01DFB3AE09D
:1014B000C248844208D10121102000F015FB002110
:1014C000102000F011FB2EE0BD48844208D101211C
:1014D000202000F009FB0021202000F005FB22E085
:1014E000B848844208D10121402000F0FDFA0021D3
:1014F000402000F0F9FA16E0B348844208D10121F7
:10150000802000F0F1FA0021802000F0EDFA0AE0DE
:10151000AE48844207D10121801500F0E5FA002190
:10152000A01500F0E1FA10BD10B50121084600F049
:10153000DBFA0021012000F0D7FA10BD2DE9F041BF
:10154000024600250026002000230024002791F8F1
:1015500003C00CF00F0591F803C00CF0100CBCF1A7
:10156000000F03D091F802C04CEA050591F800C0C5
:10157000BCF1000F31D0146800202BE04FF0010CBB
:101580000CFA00F3B1F800C00CEA03069E4220D129
:1015900083004FF00F0C0CFA03F7BC4305FA03FC71
:1015A0004CEA040491F803C0BCF1280F06D14FF0B7
:1015B000010C0CFA00FCC2F814C00AE091F803C058
:1015C000BCF1480F05D14FF0010C0CFA00FCC2F839
:1015D00010C0401C0828D1D31460B1F800C0BCF181
:1015E000FF0F34DD546800202EE000F1080C4FF0AE
:1015F000010808FA0CF3B1F800C00CEA03069E4299
:1016000021D183004FF00F0C0CFA03F7BC4305FA0D
:1016100003FC4CEA040491F803C0BCF1280F05D187
:1016200000F1080C08FA0CF8C2F8148091F803C015
:10163000BCF1480F07D100F1080C4FF0010808FA7F
:101640000CF8C2F81080401C0828CED35460BDE8C6
:10165000F0814FF6FF710180022181700421C17079
:1016600070470246002093680B400BB1012000E058
:10167000002070470146886880B27047024600200B
:10168000D3680B400BB1012000E0002070470146F9
:10169000C86880B2704701617047416170470AB104
:1016A000016100E041617047C16070474FF48032D2
:1016B0000A43826181618261826982697047024660
:1016C0000020434B18684FF68073184040EA021020
:1016D00008433F4B186070473E49C8617047F0B5FA
:1016E0000A46002300240021002500F00046B6F140
:1016F000004F02D1364EF16901E0354E7168C0F3FA
:10170000034583B200F44016B6F5401F08D121F01E
:1017100070612F4E766826F070662D4F7E6012E065
:1017200000F48016B6F5801F06D1032606FA05F4EC
:10173000A14341F0706106E0460D360103FA06F65A
:10174000B14341F0706122B1460D360103FA06F64D
:10175000314300F00046B6F1004F02D11C4EF1615A
:1017600001E01B4E7160F0BD30B500228B071C0FED
:101770000F2303FA04F2164B08338C1053F824306D
:101780009343134C08348D1044F8253023468C10B5
:1017900053F824308C07240F00FA04F423430C4C34
:1017A00008348D1044F8253030BD0A49DC3108601A
:1017B0007047000000080140000C0140001001408B
:1017C0000014014000180140001C014000200140AD
:1017D0000000014000002042DF48006840F00100A6
:1017E000DD49086008464068DC490840DA4948603D
:1017F00008460068DA490840D7490860084600688A
:1018000020F4802008600846406820F4FE0048600C
:101810004FF41F0088607047CF49096821F4803178
:10182000CD4A11601146096821F480211160B0F59C
:10183000803F03D0B0F5802F0ED106E0C64909687D
:1018400041F48031C44A116007E0C349096841F49A
:10185000A021C14A116000E000BF00BF704710B571
:1018600001460022002300204A11012A02D1BA4C6D
:10187000236806E0022A02D1B74C236A01E0B64C85
:10188000636A01F01F02012494401C400CB1012046
:1018900000E0002010BD38B5002000900024002595
:1018A00000BF3120FFF7DBFF05460098401C009089
:1018B0000098B0F5A06F01D0002DF2D03120FFF7D5
:1018C000CEFF08B1012400E00024204638BD0146C7
:1018D0000020A14A106820F0F80040EAC100106022
:1018E0007047A04908607047024600209A4B58682C
:1018F00020F47C1042EA01031843974B586070476C
:1019000098490866704701460020934A506820F0C5
:1019100003000843506070478F48406800F00C0097
:101920007047014600208C4A506820F0F0000843C0
:101930005060704701460020874A506820F4E060FC
:1019400008435060704701460020834A506820F4E5
:10195000605040EAC1005060704729B17E4A527A17
:1019600002437D4B5A7204E07B4A527A82437A4B9F
:101970005A7270477B49D831086070470146002091
:10198000754A506820F44040084350607047002179
:10199000714A20321170704A82F82010012802D05A
:1019A00004280AD104E001216B4A2032117005E0BD
:1019B0000521694A2032117000E000BF00BF704766
:1019C0006949086070476449096A0143624A1162C3
:1019D0007047654944390860704730B500210022DE
:1019E000002400235C4D6D6805F00C0121B1042931
:1019F00005D0082923D105E05C4D056022E05B4D50
:101A000005601FE0544D6D6805F47012524D6D680D
:101A100005F48034022505EB92421CB9544D554320
:101A200005600BE04C4D6D6805F400351DB1504D5F
:101A30005543056002E04D4D5543056002E04B4DB6
:101A4000056000BF00BF444D6D6805F0F001090955
:101A5000484D6B5C0568DD4045603F4D6D6805F4A1
:101A6000E061090A434D6B5C4568DD4085603A4D95
:101A70006D6805F46051C90A3E4D6B5C4568DD40F8
:101A8000C560354D6D6805F44041890B3A4D6B5C7E
:101A9000C568B5FBF3F5056130BD29B12E4A526921
:101AA00002432D4B5A6104E02B4A526982432A4B70
:101AB0005A61704729B1284A92690243264B9A61BC
:101AC00004E0254A92698243234B9A61704729B109
:101AD000214AD2690243204BDA6104E01E4AD269EE
:101AE00082431D4BDA61704729B11B4AD268024319
:101AF000194BDA6004E0184AD2688243164BDA6068
:101B0000704729B1144A12690243134B1A6104E069
:101B1000114A12698243104B1A61704712494039C9
:101B2000086070470F49C86470470B49C871704717
:101B30000948406A40F08070074948627047014692
:101B40000020054A92680A400AB1012000E0002006
:101B50007047014988727047001002400000FFF88A
:101B6000FFFFF6FE000042428004424200127A006B
:101B700000093D00440000205400002010B5044638
:101B8000FB48844209D101218803FFF7ADFF002102
:101B90004FF48040FFF7A8FF32E0F648844209D1B5
:101BA00001214804FFF7ADFF00214FF40030FFF79B
:101BB000A8FF25E0F048844209D101218804FFF7FD
:101BC000A0FF00214FF48020FFF79BFF18E0EB48B7
:101BD000844209D10121C804FFF793FF00214FF48B
:101BE0000020FFF78EFF0BE0E548844208D1012179
:101BF0000805FFF786FF00214FF48010FFF781FFF3
:101C000010BD2DE9F04786B005460E460024A246D9
:101C100000BFA1460027B08900B100BF2F462C8A23
:101C20004CF6FF700440F08804432C82AC894EF6D9
:101C3000F3100440B0883189084371890843044394
:101C4000AC81AC8A4FF6FF400440B0890443AC82BB
:101C500001A8FFF7C2FEC648874202D1DDF810A0F6
:101C600001E0DDF80CA0A88900F4004040B10AEBC7
:101C7000CA0000EB0A1031684900B0FBF1F807E038
:101C80000AEBCA0000EB0A1031688900B0FBF1F8DA
:101C90006420B8FBF0F004012009642101FB1089E5
:101CA000A88900F4004040B1322000EBC900B0FB2D
:101CB000F1F000F00700044308E0322000EB0910C7
:101CC0006421B0FBF1F000F00F0004432C8106B05A
:101CD000BDE8F0874FF41651016000218180C1807A
:101CE00001810C21418100218181704710B502469C
:101CF0000020108A4FF2FF0318400B884C882343C2
:101D00008C882343CC8823431843108210BD0021C4
:101D1000018041808180C180704721B1828942F475
:101D20000052828104E082894DF6FF731A4082815D
:101D30007047F0B50346002400260025002040F639
:101D40006A17B94200D100BF1846C1F3421401F02E
:101D50001F06012707FA06F5012C01D10C3004E01B
:101D6000022C01D1103000E014301AB107682F4363
:101D7000076002E00768AF430760F0BD1AB1838ACD
:101D80000B43838202E0838A8B4383827047028AFB
:101D90004FF6F0731A400282028A0A4302827047A9
:101DA00082894FF2FF731A40828182890A438281BD
:101DB000704721B1828942F00202828104E0828967
:101DC0004FF6FD731A4082817047028A4FF6DF7327
:101DD0001A400282028A0A430282704721B1028AB3
:101DE00042F48042028204E0028A4BF6FF731A40FA
:101DF00002827047C1F308028280704701468888DA
:101E0000C0F308007047818941F00101818170476A
:101E1000028BD2B20283028B42EA01220283704714
:101E2000028B02F47F420283028B0A4302837047D3
:101E300021B1828A42F02002828204E0828A4FF637
:101E4000DF731A408282704721B1828A42F0100209
:101E5000828204E0828A4FF6EF731A4082827047D2
:101E600021B1828A42F00802828204E0828A4FF61F
:101E7000F7731A408282704721B1828942F400428E
:101E8000828103E08289C2F30E028281704721B110
:101E9000828A42F40062828204E0828A4FF2FF73F7
:101EA0001A4082827047828A4FF6FB731A40828200
:101EB000828A0A438282704721B1828A42F00202FA
:101EC000828204E0828A4FF6FD731A408282704754
:101ED00002460020B1F5007F00D100BF13880B40FF
:101EE0000BB1012000E00020704701F40072B2F550
:101EF000007F00D100BFCA430280704770B5024620
:101F0000002400230025002040F66A16B14200D1CB
:101F100000BFC1F3421501F01F03012606FA03F3C7
:101F2000012D02D19689334006E0022D02D1168A96
:101F3000334001E0968A33400C12012606FA04F47D
:101F40001688344013B10CB1012000E0002070BDB0
:101F500010B50022002340F66A14A14200D100BF50
:101F60000A1201249440A3B2DC43048010BD000097
:101F7000003801400044004000480040004C004050
:101F800000500040704700000FB4044910B503AA88
:101F9000029800F097F910BC5DF814FB20000020B7
:101FA0000FB41CB5074B06AA7B4469460090059800
:101FB00000F059F90020694600F068F91CBC5DF892
:101FC00014FB0000E10200002DE9F0410E4604463A
:101FD000002020622046E168884730B3252805D0DC
:101FE000D4E901219047206A401CF2E7E1682046CD
:101FF00000278847050018D0A5F14100192802D80C
:1020000020354FF400673246294620462760FEF708
:10201000C9F840B1012804D0F61D26F0070608369D
:10202000D8E7361DD6E72846DAE7206ABDE8F08112
:1020300070B50C460546012A05D02878800600D5E3
:10204000EA69002302E0012305E05B1C934202D20F
:10205000E05C0028F9D1A869E618C01AA861286ACE
:10206000184428622846AFF3008004E0D5E9012136
:1020700014F8010B9047B442F8D32846AFF3008020
:1020800070BD00002DE9F041064600241068752956
:10209000314616A510D0AFF30080002802DA404286
:1020A00013A507E031688A0701D512A502E04907A8
:1020B00004D511A5012401E0AFF3008000210A221C
:1020C00006F1240709E0B0FBF2FCB0FBF2F302FBDF
:1020D0001C00303078541846491C0028F3D12346A0
:1020E0002A463046BDE8F04100F05FB8000000002D
:1020F0002D0000002B0000002000000030B5054638
:102100000B462A4613F8014B12F8010B08B1A04206
:10211000F8D01CB1002802D06D1CF1E7284630BD74
:1021200010B5431C02E010F8011B71B18107FAD110
:102130004FF0013202C88C1A8C4314EAC211F9D054
:10214000C01A0A0603D0C01E10BDC01A10BD0A0472
:1021500001D0801E10BD0902FCD0401E10BD4FF002
:1021600000020429C0F0128010F0030C00F0BE80C1
:10217000CCF1040CBCF1020F18BF00F8012BA8BF72
:1021800020F8022BA1EB0C0100F0B0B85FEAC17C93
:1021900024BF00F8012B00F8012B48BF00F8012BE9
:1021A000704770477047704770472DE9F0470D46FC
:1021B00099469246044600F124080168880604D531
:1021C000E06921F01001216000E00120A84201DD5A
:1021D000471B00E00027A1697A1902EB0900081AE1
:1021E000A0612078C00602D42046AFF3008000260C
:1021F00008E0D4E901211AF806009047206A401C43
:10220000761C20624E45F4DB2078C0060AD52046B5
:10221000AFF3008006E0D4E9012130209047206A26
:10222000401C2062381EA7F10107F4DC07E0D4E966
:10223000012118F805009047206A401C2062281EE2
:10224000A5F10105F3DC2046AFF3008020780006FD
:1022500002D50220BDE8F0870120FBE701694A1C96
:1022600002610878704700B58FB0CDE901310021D7
:10227000059105497944CDE9031011466846FFF7F9
:10228000A3FE0FB000BD0000E5FFFFFF0A6802F8E3
:10229000010B0A60704710B5436913B1AFF30080BA
:1022A00001E0FFF7C5FE012010BD127800F1240106
:1022B0000A7000224A700122EDE711684FF0FF32E8
:1022C000E9E70000074B70B50D467B44FFF7CBFFF5
:1022D0000446284600F02FF810B14FF0FF3070BDD3
:1022E000204670BDE9E4FFFF4FF0000200B5134641
:1022F00094469646203922BFA0E80C50A0E80C5026
:10230000B1F12001BFF4F7AF090728BFA0E80C50D6
:1023100048BF0CC05DF804EB890028BF40F8042BCF
:1023200008BF704748BF20F8022B11F0804F18BF3C
:1023300000F8012B7047007B00F080007047754665
:1023400000F02CF8AE4605006946534620F0070021
:10235000854618B020B5FFF711F8BDE820404FF0D2
:1023600000064FF000074FF000084FF0000B21F07F
:102370000701AC46ACE8C009ACE8C009ACE8C0094C
:10238000ACE8C0098D46704710B50446AFF3008035
:102390002046BDE81040FDF71ABF00000048704716
:1023A0001C020020C4230008000000205800000088
:1023B0006C0100081C2400085800002028080000B8
:1023C000880100080000000000A24A04000000008C
:1023D00000000000010203040607080900000000D5
:1023E00000000000000000000000000003000000EA
:1023F00000000000010000000D0A4F4B0D0A000014
:1024000000000000000000000000000001020304C2
:0C24100001020304060708090204060884
:0400000508000131BD
:00000001FF
