:020000040800F2
:1000000088130020092B00080101000803010008E3
:10001000070100080B0100080F01000800000000A4
:1000200000000000000000000000000013010008B4
:100030001501000800000000170100081901000860
:100040001F2B00081F2B00081F2B00081F2B000868
:100050001F2B00081F2B0008711400081F2B00081D
:100060001F2B00081F2B00081F2B00081F2B000848
:100070001F2B00081F2B00081F2B00081F2B000838
:100080001F2B00081F2B00081F2B00081F2B000828
:100090001F2B00081F2B00081F2B00081F2B000818
:1000A0001F2B00081F2B00081F2B00081F2B000808
:1000B00019290008232800081F2B00081F2B0008FF
:1000C0001F2B00081F2B00081F2B00081F2B0008E8
:1000D0001F2B00083D2700081F2B00088D29000852
:1000E0001F2B00081F2B00081F2B0008DFF80CD067
:1000F00004F038FE004800479304000888130020ED
:10010000704700BFFEE700BFFEE700BFFEE700BF8D
:10011000FEE77047704770477047000010B5FCA2BB
:100120000021142002F059F8FCA20221002002F064
:1001300054F8FDA20421002002F04FF8FDA2062190
:10014000002002F04AF810BD08B5FD4800780128EB
:1001500004D1FC4908700020F9490870F94800787A
:1001600010B1012834D134E0F748007870B9F7A213
:100170000021142002F031F8F7A20221262002F01B
:100180002CF8F7A20421142002F027F8EE4800789A
:1001900001280ED1EDA20021142002F01EF8EEA2DB
:1001A0000221262002F019F8F0A20421142002F006
:1001B00014F8F1480068012806D10020EE49843186
:1001C000086001F048FB03E00120EB49843108603E
:1001D0008EE001F0D4FECEA20021084601F0FDFF22
:1001E0004FF4FA7002F019FA01F0C9FEE3A20021FF
:1001F000084601F0F2FF40F2DC5002F00EFA002057
:10020000E249087000BF0020DB498431086001F03A
:1002100022FB0120DE49C1F8840163E000F06AFBA3
:10022000C749087008460178DAA004F067FEDD4887
:10023000007805281BD1FFF771FFC148007802281C
:1002400003D101F09CFE01F07AF9BD480078032843
:1002500003D101F094FE01F0D4FCB94800780128E4
:1002600040D101F08CFE0020B64908703BE0C74841
:100270000078401CC5490870084600780A2818DB39
:10028000C9A202210A2001F0A8FFCB48082380223E
:1002900004210090602002F007F840F2DC5002F0E8
:1002A000BCF901F06CFE0020B8490870A54908703F
:1002B00019E0C2A202210A2001F08FFFC3A204218B
:1002C0000A2001F08AFFBC48082380220421009004
:1002D000602001F0E9FF40F2DC5002F09EF901F0ED
:1002E0004EFE90E79AE700BF00209549087000BFD6
:1002F00000BF08BD9448007840B901209E49B8313C
:1003000008600020A249C1F8B0010BE08E480078D7
:10031000012807D100209849B831086001209C4984
:10032000C1F8B001704710B5AB480078012826D15C
:100330000020A9490870A94908700120A84908703F
:10034000A849086080490870A74802F00BF901200D
:100350008F49C1F888014FF47A7002F05EF94FF4CA
:100360007A7002F05AF94FF47A7002F056F94FF4AD
:10037000FA7002F052F900207F498831086010BD00
:1003800010B59A480078012879D100209749087063
:1003900091480078012821D1924908606A49087083
:1003A000914802F0DFF801207949C1F8880190A056
:1003B00004F0A4FD4FF47A7002F02FF94FF47A7034
:1003C00002F02BF94FF47A7002F027F94FF47A70AB
:1003D00002F023F900206849883108607E480078DF
:1003E000022825D10020844908707E4908605649BA
:1003F0000870824802F0B6F801206549C1F888010A
:100400004FF47A7002F009F94FF47A7002F005F9AE
:100410004FF47A7002F001F94FF47A7002F0FDF8AF
:100420004FF4FA7002F0F9F800205349883108605F
:100430006C4874380068012812D16A487438006822
:1004400067490978884203D001206349087002E0B7
:10045000002061490870634874380068604908707A
:1004600060487438006850B95E48743800685C4968
:100470000978884204D002205749087003E007E059
:10048000002055490870574874380068544908706E
:1004900010BD4FF4A06002F045FB02F081F800F0BF
:1004A00060F94FF4E13002F0FCF84FF4614002F0E3
:1004B0009DFA01F0C3FF00F007FA00F0EBFF00F037
:1004C000D1F900F0E8F900202B498831086001F0EB
:1004D00026FF01F054FD01F011F84948006800F0D2
:1004E00012FF02F03BF80A2002F097F84548D0F8D6
:1004F000100101280BD13B4908603B4802F032F85B
:1005000001202349C1F888014FF47A707CE094E01F
:10051000B9DCC0EDD4B1C4A3CABD0000CCEDBCD3DE
:10052000D6B8CEC63A4B3300C9BEB3FDD6B8CEC698
:100530003A4B3400CDCB20202020B3F63A4B32008A
:10054000BA0B0020B80B0020BB0B002048656C6C78
:100550006F20686F6D650000BBB6D3ADC4E30000CB
:10056000D6B820CEC620BDE220CBF800C3C520D22D
:10057000D120B4F220BFAA0000812142D1E9D6A443
:10058000B9DCC0EDD4B1C9EDB7DD0000BC0B002073
:10059000008021426B65795F676574203A2025648D
:1005A0000D0A0000B90B0020BCB4BDABB7B5BBD879
:1005B000D6F7D2B3A3A10000300B0020D1E9D6A416
:1005C000C9EDB7DDCAA7B0DC00000000D4D9CBA2CA
:1005D000D2BBB4CE00000000C10B0020C30B002032
:1005E000C00B00208401214200002041BE0B0020EE
:1005F00067656C6C6F0D0A00BF0B00200000B443F0
:10060000B40B00200000214202F007F84FF47A708A
:1006100002F003F84FF47A7001F0FFFF4FF47A70A4
:1006200001F0FBFF0020114908600120104908700B
:100630001048D0F810011049087041F61F4140F2EF
:10064000E73002F093F80FE0FFF754FE00F052F9A4
:100650000A490870FFF778FD0948007810B9FFF7DC
:100660008FFE01E0FFF75FFEEEE700008881214288
:10067000BB0B002000002142C00B0020BA0B002061
:10068000C30B00200CB50020019000906C4800685E
:1006900040F480306A49086000BF6948006800F48F
:1006A000003000900198401C0190009818B9019802
:1006B000B0F5A06FF1D16248006800F4003010B1CD
:1006C0000120009001E0002000900098012843D113
:1006D0005C48006840F010005A490860084600680D
:1006E00020F0030008600846006840F0020008603F
:1006F0005348406852494860084640684860084688
:10070000406840F4806048600846406820F47C10EF
:1007100048600846406840F4E810486008460068B1
:1007200040F08070086000BF4548006800F000702D
:100730000028F9D04248406820F003004049486052
:100740000846406840F00200486000BF3C484068EE
:1007500000F00C000828F9D10CBD10B5FFF792FF8E
:1007600010BD10B53648006840F0010034490860FB
:1007700008464068344908403149486008460068E6
:10078000324908402E4908600846006820F480205D
:1007900008600846406820F4FE0048604FF41F00DF
:1007A0008860FFF7DAFF4FF000602949086010BD4C
:1007B00010B5002100200022214B5B6803F00C01E2
:1007C00021B1042906D0082928D107E0214B224C69
:1007D000236027E01F4B204C236023E0184B5B680D
:1007E00003F47010164B5B6803F48032022303EBB2
:1007F000904022B9194B4343174C23600DE0104B36
:100800005B6803F4003323B1144B4343124C236061
:1008100003E0104B4343104C236003E00D4B0E4CA0
:10082000236000BF00BF064B5B68C3F303130C4C8F
:10083000E15C094B1B68CB40074C236010BD0000F6
:1008400000100240002002400000FFF8FFFFF6FE0B
:1008500008ED00E000127A00C40B002000093D0002
:10086000C80B002008B50121082002F0E5FC4FF478
:10087000E040ADF8000010208DF8030003208DF853
:10088000020069460F4802F01BFA4FF4E0410D48A0
:1008900002F0C3FA08BD08B50121082002F0CCFC23
:1008A0000420ADF8000010208DF8030003208DF81F
:1008B00002006946034802F003FA0421014802F0ED
:1008C000AEFA08BD000C014008B50121042002F079
:1008D000B3FC48208DF803004FF41840ADF8000039
:1008E00069462A4802F0ECF94FF41841274802F013
:1008F00094FA08BD10B500244FF40061234802F0BB
:1009000072FA88B90A2001F088FE4FF400611F488E
:1009100002F069FA00B9012400BF4FF400611B48DE
:1009200002F061FA0028F8D04FF48051174802F025
:100930005AFA88B90A2001F070FE4FF4805113482A
:1009400002F051FA00B9022400BF4FF480510F4861
:1009500002F049FA0028F8D04FF400410B4802F0A9
:1009600042FA88B90A2001F058FE4FF400410748C6
:1009700002F039FA00B9032400BF4FF400410348E4
:1009800002F031FA0028F8D0204610BD00080140DE
:1009900000BFF749098801F040010029F9D0F44966
:1009A000091D0880704710B5EF20FFF7F1FF012007
:1009B000FFF7EEFF10BD10B5EE490968080EFFF70E
:1009C000E7FFEC480068C0F30740FFF7E1FFE948A4
:1009D0000088C0F30720FFF7DBFFE6490878FFF740
:1009E000D7FF10BD10B504462046FFF7D1FF10BD5C
:1009F00010B50446C4F30720FFF7CAFFE0B2FFF7C3
:100A0000C7FF10BD10B504462046FFF7C1FF10BD5B
:100A100010B504462012FFF7BBFFE0B2FFF7B8FFA6
:100A200010BD7CB50546EF208DF8000001208DF843
:100A30000100D0480068000E8DF80200CD48006823
:100A4000000C8DF80300CB480088000A8DF80400E4
:100A5000C84800788DF8050007208DF806000020B2
:100A60008DF80700C449088012E0012001F0D5FD8F
:100A7000C148008800F4004050B10020BE49088001
:100A80006946BE4803F042FE04460CB120467CBDD8
:100A9000681E80B2051EE8D100BFF8E770B5FFF709
:100AA00082FFFFF788FF0120FFF79CFF0320FFF77D
:100AB0009FFF0120FFF7A6FF05263046FFF7A8FF9E
:100AC0004FF4FA60FFF7ADFF05460DB16C7A00E018
:100AD000FF24204670BD2DE9F0410546FFF763FF76
:100AE000FFF769FF0120FFF77DFF0420FFF780FF7C
:100AF0000220FFF787FF2846FFF74AFFEF1D384621
:100B0000FFF786FF4FF4FA60FFF78BFF06460EB142
:100B1000747A00E0FF242046BDE8F08170B5FFF74D
:100B200042FFFFF748FF0120FFF75CFF0320FFF7BC
:100B30005FFF0320FFF766FF07263046FFF768FFD9
:100B40004FF4FA60FFF76DFF05460DB16C7A00E0D7
:100B5000FF24204670BD2DE9F04781460D4616461C
:100B60001F46FFF720FFFFF726FF0120FFF73AFFA0
:100B70000820FFF73DFF0420FFF744FF4846FFF73A
:100B800007FF2812FFF704FFE8B2FFF701FF30125A
:100B9000FFF7FEFEF0B2FFF7FBFE09F10D0000EBE0
:100BA0002520E9B2084400EB2620F1B200EB010A4F
:100BB0005046FFF72DFF4FF4FA60FFF732FF04466F
:100BC00064B194F80980E07AA17A00EB01203880C2
:100BD000607B217B00EB0120788001E04FF0FF0873
:100BE0004046BDE8F08770B5FFF7DDFEFFF7E3FE96
:100BF0000120FFF7F7FE0320FFF7FAFE0520FFF7BD
:100C000001FF09263046FFF703FF4FF4FA60FFF7B4
:100C100008FF05460DB16C7A00E0FF24204670BD48
:100C20002DE9F04106460C46FFF7BDFEFFF7C3FE77
:100C30000120FFF7D7FE0620FFF7DAFE0620FFF7B8
:100C4000E1FE3046FFF7A4FE2012FFF7A1FEE0B25E
:100C5000FFF79EFE06F10D0000EB2420E1B200EB51
:100C600001084046FFF7D4FE4FF4FA60FFF7D9FEC3
:100C700007460FB17D7A00E0FF252846BDE8F081E8
:100C80002DE9F04104460D46FFF78DFEFFF793FE78
:100C90000120FFF7A7FE0720FFF7AAFE0C20FFF7B1
:100CA000B1FE2012FFF774FEE0B2FFF771FE2812CA
:100CB000FFF76EFEE8B2FFF76BFE142000EB242076
:100CC000E1B2084400EB2520E9B200EB0108404600
:100CD000FFF79EFE4FF4FA60FFF7A3FE07460FB141
:100CE0007E7A00E0FF263046BDE8F08170B5FFF760
:100CF0005AFEFFF760FE0120FFF774FE0320FFF7A6
:100D000077FE0D20FFF77EFE11263046FFF780FEAE
:100D10004FF4FA60FFF785FE05460DB16C7A00E0EE
:100D2000FF24204670BD0146212920D2DFE801F0D2
:100D300011131517191B1D6E707274768C8C8C8CA8
:100D4000787A8C8C8C7C8C8C7E808284868C8C884F
:100D50008A000BA07AE00FA078E013A076E017A03D
:100D600074E01BA072E01FA070E023A06EE06BE0B7
:100D700000480040D80B0020420C0020680C0020E6
:100D8000202020202020204F4B2020202020202009
:100D90000000000020CAFDBEDDB0FCBDD3CAD5B442
:100DA000EDCEF32000000000B4ABB8D0C6F7C9CF39
:100DB000C3BBD3D0CAD6D6B800000000C2BCC8EBB3
:100DC000D6B8CEC6CDBCCFF1CAA7B0DC00000000BB
:100DD00020D6B8CEC6CCABB8C9BBF2CCABB5AD2033
:100DE0000000000020D6B8CEC6CCABCAAABBF2CC5D
:100DF000ABBAFD20000000002020D6B8CEC6CDBC86
:100E0000CFF1CCABC2D2202000000000C2A01DE078
:100E1000C6A01BE0CAA019E0CEA017E0D2A000BF78
:100E2000D6A013E0DAA011E0DEA00FE0E2A00DE012
:100E3000E6A00BE0EAA009E0EEA007E0F2A005E0E2
:100E4000F6A003E0FAA001E0FEA000BF00BF7047DB
:100E50002DE9F04706460D46FFF7A5FDFFF7ABFD70
:100E60000120FFF7BFFD0520FFF7C2FD0E20FFF7B1
:100E7000C9FD3046FFF78CFD2846FFF789FD701944
:100E800000F114084046FFF7C3FD4FF4FA60FFF786
:100E9000C8FD07460FB17C7A00E0FF241CB9EEA024
:100EA00004F02CF807E02046FFF73DFF8146494655
:100EB000EEA004F023F82046BDE8F0872DE9F041CC
:100EC0000546FFF770FDFFF776FD0120FFF78AFD6D
:100ED0000320FFF78DFD0F20FFF794FD1327384601
:100EE000FFF796FD4FF47A70FFF79BFD0446BCB107
:100EF000667AE07BA17B00EB01202880607CA870F3
:100F0000A07C0006E17C00EB0140217D00EB01208C
:100F1000617D08446860E07D2872607E687200E050
:100F2000FF26A6B92988D3A003F0E8FFA978D7A0A7
:100F300003F0E4FFD9A0696803F0E0FF687A4FF49A
:100F4000165200FB02F1D8A003F0D8FF07E03046AC
:100F5000FFF7E9FE80464146C4A003F0CFFF3046CC
:100F6000BDE8F0812DE9F0410446FFF71CFDFFF7D5
:100F700022FD0120FFF736FD0720FFF739FD152080
:100F8000FFF740FD200EFFF703FDC4F30740FFF716
:100F9000FFFCC4F30720FFF7FBFCE0B2FFF7F8FC0F
:100FA0001D2000EB1460C4F307410844C4F307217B
:100FB0000844E1B247183846FFF72AFDBD480460EF
:100FC0004FF4FA60FFF72DFD06460EB1757A00E08A
:100FD000FF25B84804601DB9B7A003F08FFF07E0F4
:100FE0002846FFF7A0FE80464146A0A003F086FFFA
:100FF0002846BDE8F0812DE9F04781460E46FFF70F
:10100000D2FCFFF7D8FC0120FFF7ECFC2420FFF70F
:10101000EFFC1820FFF7F6FC4846FFF7B9FC002468
:1010200007E0305DFFF7B4FC305D384487B2601CE8
:10103000C4B2202CF5DB09F13D00384487B23846B4
:10104000FFF7E6FC4FF4FA60FFF7EBFC054615B13D
:1010500095F8098001E04FF0FF084046BDE8F087B1
:101060002DE9F04707468846FFF79DFCFFF7A3FCF4
:101070000120FFF7B7FC0420FFF7BAFC1920FFF7A7
:10108000C1FC3846FFF784FC07F11E094846FFF70C
:10109000BFFC4FF4FA60FFF7C4FC064666B1757AF0
:1010A000002406E004F10A00305C08F80400601C2B
:1010B000C4B2202CF6DB00E0FF252846BDE8F0870F
:1010C0002DE9F04781460D4616461F46FFF76BFC9B
:1010D000FFF771FC0120FFF785FC0820FFF788FC73
:1010E0001B20FFF78FFC4846FFF752FC2812FFF742
:1010F0004FFCE8B2FFF74CFC3012FFF749FCF0B2AE
:10110000FFF746FC09F1240000EB2520E9B2084472
:1011100000EB2620F1B2D9E020D6B8CEC6CCD8D587
:10112000F7B5E3CCABC9D920000000002020D6B829
:10113000CEC6B2BBC6A5C5E420202020000000001A
:1011400020C3BBD3D0CBD1CBF7B5BDD6B8CEC6204C
:1011500000000000202020CCD8D5F7BACFB2A2CA18
:10116000A7B0DC2000000000B5D8D6B7D0F2BAC5D1
:10117000B3ACB3F6B7B6CEA7000000002020C9BEBE
:10118000B3FDC4A3B0E5CAA7B0DC20200000000076
:1011900020C7E5BFD5D6B8CEC6BFE2CAA7B0DC200F
:1011A00000000000BBBAB3E5C7F8C4DACEDED3D086
:1011B000D0A7CDBC0000000020B6C1D0B4464C4141
:1011C0005348B3F6B4ED202000000000202020CECC
:1011D000B4B6A8D2E5B4EDCEF32020200000000084
:1011E0002020CEDED0A7BCC4B4E6C6F7BAC5202006
:1011F0000000000020BCC4B4E6C6F7C4DAC8DDB401
:10120000EDCEF3200000000020BCC7CAC2B1BED2A0
:10121000B3C2EBB4EDCEF32000000000202020206C
:10122000D6B8CEC6BFE2C2FA2020202000000000BF
:1012300020202020B5D8D6B7B4EDCEF32020202032
:101240000000000020B7B5BBD8C8B7C8CFC2EBD3E9
:10125000D0CEF320000000000D0AC9E8D6C3B2CEFC
:10126000CAFDB3C9B9A6A3A1000000000D0A2573E9
:10127000000000000D0AC4A3BFE9D7EEB4F3D6B84E
:10128000CEC6C8DDC1BF3D25640000000D0AB6D43E
:10129000B1C8B5C8BCB63D25640000000D0AB5D87C
:1012A000D6B73D25780000000D0AB2A8CCD8C2CA36
:1012B0003D256400D80B00200D0AC9E8D6C3B5D877
:1012C000D6B7B3C9B9A6A3A10000000000EB010A7C
:1012D0005046FFF79DFB4FF4FA60FFF7A2FB044670
:1012E00064B194F80980E07AA17A00EB012038809B
:1012F000607B217B00EB0120788001E04FF0FF084C
:101300004046BDE8F0872DE9F0410646FFF74BFB6C
:10131000FFF751FB0120FFF765FB0320FFF768FB98
:101320001D20FFF76FFB21273846FFF771FB4FF4B5
:10133000FA60FFF776FB044634B1657AE07AA17A69
:1013400000EB0120308000E0FF256DB9E07AA27A41
:1013500000EB02212DA003F0D1FDE07AA17A00EB91
:1013600001202F49087008E02846FFF7DCFC804682
:101370004146AFF2081003F0C1FD2846BDE8F081F8
:1013800010B50446FFF70FFBFFF715FB0120FFF731
:10139000FFFA0020FFF7FCFA0020FFF7F9FAC82057
:1013A00001F03BF91F48008800F4004008B31E48D4
:1013B0000078EF281AD11C484078012816D11A4825
:1013C0008079072812D11848807800061649C97814
:1013D00000EB01401449097900EB012012494979D9
:1013E0000844206000200F49088010BD00200D49EE
:1013F00008800120F9E710B504460CA003F07EFD3B
:1014000021460DA003F07AFD10BD00000D0AD3D0D7
:10141000D0A7D6B8CEC6B8F6CAFD3D2564000000F8
:10142000E20B0020420C0020680C00204572726F15
:1014300072200D0A00000000656E73757265203D14
:10144000202564200D0A000010B50121080701F0D5
:1014500000FF012003F00EF903F02BF910BD10B5C9
:1014600000214FF4FE7001F001FFFFF7EDFF10BD0A
:1014700010B5012003F0DBF81E48006848B11420C5
:1014800001F0CBF81B48006818B100F06AFDFFF7C7
:10149000E6FF10BD1FB50121052001F0CDFE0120A2
:1014A000ADF80C0028208DF80F0003A9124801F0B8
:1014B00007FC0021084601F019FD012000900020E2
:1014C0008DF8040008208DF8050001208DF8060035
:1014D000684603F035F806208DF8080002208DF8E4
:1014E00009008DF80A0001208DF80B0002A801F018
:1014F0001EFB1FBD000121420008014008B501216B
:10150000082001F099FE0120ADF8000028208DF898
:1015100003006946FC4801F0D3FB0220ADF800004F
:1015200010208DF8030003208DF802006946F6486C
:1015300001F0C6FB0221F44801F06FFC08BDF0B5D4
:1015400087B0002700250020F04908607FE1052FC3
:101550002AD2DFE807F0032A66ABE300701CC6B2AC
:10156000EBA003F0CBFCEDA20021282000F035FE1B
:10157000EDA20221062000F030FEFFF78FFA0446AC
:101580007CB90120FFF7A7FA044634B940F2DC50D9
:1015900001F043F80026012706E02046FFF72BFF65
:1015A00002E02046FFF727FF35E1701CC6B200F0CD
:1015B000E6FCDAA20021282000F00FFEDDA20221C5
:1015C000062000F00AFEDEA003F098FC4FF4FA704B
:1015D00001F023F8FFF762FA0446F4B90220FFF79E
:1015E0007AFA0446ACB9DAA003F088FC00F0C7FC34
:1015F000CAA20021282000F0F0FDD8A20221062076
:1016000000F0EBFD4FF4FA7001F007F80026022716
:1016100006E02046FFF7EFFE02E02046FFF7EBFE74
:10162000F9E0D1A003F06AFC00F0A9FCBBA2002104
:10163000282000F0D2FDD0A20221062000F0CDFD2E
:10164000FFF76CFA0446A4B94FF4FA7000F0E5FF16
:10165000CDA003F053FC00F092FCB0A200212820A2
:1016600000F0BBFDCBA20221062000F0B6FD03274F
:1016700017E0CBA003F042FC00F081FCA7A2002100
:10168000282000F0AAFDC9A20221062000F0A5FD35
:101690004FF4FA7000F0C1FF2046FFF7ACFE0026C1
:1016A00000274FF4FA7000F0B8FFB4E0C3A003F0D5
:1016B00025FC00F064FC99A20021282000F08DFD9B
:1016C000C2A20221062000F088FD40F2DC5000F0AA
:1016D000A4FFFFF788FA0446BCB9642000F09DFF20
:1016E000BEA003F00BFC00F04AFC8CA200212820D5
:1016F00000F073FDBEA20221002000F06EFD4FF449
:10170000FA7000F08AFF042703E000272046FFF765
:1017100072FE4FF4FA7000F080FF7CE000F02FFCC6
:101720007EA20021282000F058FDB6A2022106204A
:1017300000F053FDB7A20421062000F04EFD34E076
:10174000FFF7D8F8B649087008460178B5A003F04D
:10175000D5FBB3480078022806D10020B0490870B4
:10176000002D01DD681EC5B2AD480078032806D102
:101770000020AB490870632D01DA681CC5B2294608
:10178000ACA003F0BBFB2A46ADA102A803F0C6FB48
:10179000AFA20621084600F020FD102004232A46AF
:1017A000062100903C2000F080FC9D480078012834
:1017B000C6D100209A4908704FF4FA7000F02DFF4E
:1017C000A5A003F09BFB29469AA003F097FB2946AE
:1017D0000220FFF725FA0446C4B900F0D0FB4FA25F
:1017E0000021282000F0F9FC9EA20221062000F032
:1017F000F4FCA0A003F082FB642000F00EFF00F0D8
:10180000BEFB01204149086007B0F0BD002720461B
:10181000FFF7F1FD00BF00BF4FF4C87000F0FDFE00
:101820000A2E14D100F0ABFB3CA20021282000F0CE
:10183000D4FC94A20221062000F0CFFC642000F02A
:10184000ECFE00F09CFB01203049086000E07EE6E1
:1018500000BF00BFD8E710B588B08DA003F04EFBE5
:1018600000F08DFB8D4808235A22002100901A2099
:1018700000F01AFD8A48082380220421009060208D
:1018800000F012FDB5E187A003F038FBFFF732F856
:1018900063490870FFF702F9044685480078401C48
:1018A00083490870002C2BD10020087081A003F020
:1018B00025FB0120FFF70FF904467D480078401C06
:1018C0007B490870002C1CD1002008707DA003F01B
:1018D00015FB07AB632200210120FFF7F1FB044653
:1018E000002C0FD17BA003F009FB00F048FBBDF8F2
:1018F0001C207BA102A803F011FBBDF81C10F7E02F
:1019000064E15CE133E10000000C0140848121428C
:10191000C7EBB0B4CAD6D6B80D0A0000CCEDBCD324
:10192000D6B8CEC600000000C7EBB0B4D6B8CEC65D
:1019300000000000C7EBD4D9B0B4D2BBB4CE0000D5
:10194000C7EBD4D9B0B4D2BBB4CE200D0A0000008E
:10195000D6B8CEC6D5FDB3A3200D0A00D6B8CEC6E4
:10196000D5FDB3A300000000B6D4B1C8C1BDB4CE4C
:10197000D6B8CEC6200D0A00B6D4B1C8C1BDB4CE0B
:10198000D6B8CEC600000000B6D4B1C8B3C9B9A657
:10199000200D0A00B6D4B1C8B3C9B9A60000000032
:1019A000B6D4B1C8CAA7B0DC200D0A00B6D4B1C8FD
:1019B000C1BDB4CECAA7B0DC00000000C9FAB3C9EB
:1019C000D6B8CEC6C4A3B0E5200D0A00C9FAB3C983
:1019D000D6B8CEC6C4A3B0E500000000C9FAB3C9AA
:1019E000D6B8CEC6C4A3B0E5B3C9B9A6200D0A00C7
:1019F000C9FAB3C9D6B8CEC6C4A3B0E5B3C9B9A6AF
:101A000000000000B0B44B34BCD32CB0B44B33BC9A
:101A1000F5000000B0B44B32B1A3B4E60000000002
:101A2000BA0B00206B65795F6E756D206973202598
:101A3000640000004944203D202564200D0A000078
:101A400020D6B8CEC649443A2025642000000000C4
:101A5000D6B8CEC649443A00B4A2B4E6C4A3B0E5B1
:101A6000200D0A00C2BCC8EBD6B8CEC6B3C9B9A611
:101A700000000000C2BCC8EBD6B8CEC6B3C9B9A638
:101A8000200D0A00D1E9D6A4B3ACCAB10000000011
:101A9000C7EBB0B4CAD6D6B8200D0A0000000020AB
:101AA000300B0020BBF1C8A1CDBCCFF1200D0A0046
:101AB000E30B0020BBF1C8A1CDBCCFF1B3C9B9A6DF
:101AC000200D0A00C9FAB3C9CCD8D5F7B3C9B9A655
:101AD000200D0A00D1E9D6A4B3C9B9A6200D0A0089
:101AE00020D6B8CEC649443A256420200000000024
:101AF0007AA003F003FA7C4808235A2200210090C0
:101B00001A2000F0D1FB794808238022042100909C
:101B1000602000F0C9FB76A20021084600F05DFBC2
:101B200074A20221002000F058FB73A204210020BF
:101B300000F053FB71A20621002000F04EFB0120B3
:101B40006F4908706F48006818B901206E49087025
:101B500002E000206C490870BDF81C006B49087059
:101B600040F2DC5000F059FD00F009FA46E068A0B0
:101B700003F0C4F900F003FA684808237C2200212E
:101B800000903C2000F090FB59A20021142000F0AE
:101B900024FB58A20221142000F01FFB60A20421A4
:101BA000142000F01AFB5FA20621142000F015FBA0
:101BB00040F2DC5000F031FD00F0E1F91EE020467B
:101BC000FFF719FC40F2DC5000F027FD5648007882
:101BD0000A280ED100F0D3F9AFF2541202210620E8
:101BE00000F0FBFA40F2DC5000F017FD00F0C7F9FE
:101BF00004E04E48007801287FF445AE00BF08B0ED
:101C000010BD30B587B0002400F0B9F948A200211A
:101C1000282000F0E2FAAFF214220221062000F0A0
:101C2000DCFA46A20421062000F0D7FA2FE0FEF7E6
:101C300061FE3E49087008460078022805D1002060
:101C40000870002C01DD601E84B23848007803283B
:101C500006D1002035490870632C01DA601C84B27B
:101C6000224639A102A803F059F9214639A003F010
:101C700045F9AFF224220621084600F0AEFA102002
:101C80000423224606210090502000F00EFA274837
:101C900000780128CBD101212046FEF7F1FF05464F
:101CA00095B922462FA102A803F038F900F067F990
:101CB00030A003F023F940F2DC5000F0AEFC40F21B
:101CC000DC5000F0AAFC02E02846FFF794FB40F24B
:101CD000DC5000F0A2FC07B030BD0000D6B8CEC684
:101CE00049443A256400000000020020300B002027
:101CF000D1E90000D6A40000B3C90000B9A60000D5
:101D0000BB0B002010012142C10B0020B90B0020A9
:101D1000D1E9D6A4CAA7B0DC200D0A000004002037
:101D2000CAA70000B0DC0000E30B0020BA0B0020C3
:101D3000C9BEB3FDD6B8CEC600000000B0B44B3467
:101D4000B1A3B4E600000000D6B8CEC649443A209C
:101D50002564200049445F4E554D203D20256420D8
:101D60000D0A0000C9BEB3FDD6B8CEC649443A201C
:101D700025642000C9BEB3FDB3C9B9A6200D0A0071
:101D800010B54FF48041F94801F047F84FF4004195
:101D9000F64801F042F84FF40041F44801F03FF8F2
:101DA0004FF48041F14801F03AF810BD10B54FF4FE
:101DB0008041EE4801F031F84FF40041EB4801F06A
:101DC0002EF84FF40041E94801F027F810BD10B596
:101DD0004FF48041E54801F020F84FF48041E3489A
:101DE00001F01DF810BD2DE9F04105462C464FF4D9
:101DF0008041DE4801F013F800261CE0274607F07A
:101E00008007802F04D13902D84801F006F804E099
:101E10004FF40041D54801F002F86006040E4FF47B
:101E20008041D24800F0F9FF4FF48041CF4800F0E4
:101E3000F6FF701CC6B2082EE0DBBDE8F08110B5DD
:101E40000446FFF79DFF7820FFF7CDFFFFF7BFFFA8
:101E50000020FFF7C8FFFFF7BAFF2046FFF7C3FFD8
:101E6000FFF7B5FFFFF7A2FF10BD10B50446FFF75F
:101E700087FF7820FFF7B7FFFFF7A9FF4020FFF7A4
:101E8000B2FFFFF7A4FF2046FFF7ADFFFFF79FFF6C
:101E9000FFF78CFF10BD70B504460D461DB1E0B2D2
:101EA000FFF7E3FF02E0E0B2FFF7C9FF70BD70B5D6
:101EB0000646002418E004F1B0000021FFF7EBFF14
:101EC00000210846FFF7E7FF00211020FFF7E3FF9E
:101ED000002505E001213046FFF7DDFF681CC5B293
:101EE000802DF7DB601CC4B2082CE4DB70BD06E07B
:101EF00041F6650100E0491E0029FCD1401E002882
:101F0000F6D17047014605E0002001E0421CD0B246
:101F10007B28FBDB0A1EA1F10101F5D1704770B5EA
:101F200004460D4605F1B0000021FFF7B4FF102173
:101F300041EA14100021FFF7AEFF04F00F0000216A
:101F4000FFF7A9FF70BD10B500218D20FFF7A3FF9B
:101F500000211420FFF79FFF0021AF20FFF79BFF18
:101F600010BD10B500218D20FFF795FF0021102036
:101F7000FFF791FF0021AE20FFF78DFF10BD70B578
:101F8000002418E004F1B0000021FFF784FF0021D5
:101F90000846FFF780FF00211020FFF77CFF002597
:101FA00005E001210020FFF776FF681CC5B2802DF7
:101FB000F7DB601CC4B2082CE4DB70BD70B50024F4
:101FC00018E004F1B0000021FFF765FF002108468A
:101FD000FFF761FF00211020FFF75DFF002505E0FE
:101FE00001210846FFF757FF681CC5B2802DF7DBBB
:101FF000601CC4B2082CE4DB70BD2DE9F047074635
:102000000E469046994600250024A8F12000C5B24E
:102010007F2F02DD0027B01CC6B2B9F1100F24D10A
:1020200031463846FFF77BFF002408E004EB05113A
:102030004F4A505C0121FFF72EFF601CC4B2082CF0
:10204000F4DB701CC1B23846FFF769FF002409E0D9
:1020500004EB05110831464A505C0121FFF71BFFD4
:10206000601CC4B2082CF3DB12E031463846FFF79F
:1020700056FF00240AE005EB45013E4A02EB410110
:10208000085D0121FFF707FF601CC4B2062CF2DBDC
:10209000BDE8F08710B50246012000E050430B1E5A
:1020A000A1F10104E1B2F9D110BD2DE9FF5F0746AE
:1020B00091461E460E9D4FF0000A002435E0301B6D
:1020C000401EC1B20A20FFF7E5FFB9FBF0F00A217C
:1020D000B0FBF1F201FB1208BAF1000F14D1701E2F
:1020E000A04211DDB8F1000F0CD1AB4605EBDB715E
:1020F000491001FB0471C8B22B4620220199FFF759
:102100007CFF10E04FF0010AAB4605EBDB71491094
:1021100001FB0471C8B208F13001CAB22B46019923
:10212000FFF76BFF00BF601CC4B2B442C7DBBDE861
:10213000FF9F2DE9F04104460F46154698460026BC
:102140000FE0AA5D434639462046FFF756FF04F1EB
:102150000800C4B2782C02DD0024B81CC7B2701C81
:10216000C6B2A85D0028ECD1BDE8F08100100140A6
:10217000365D00080E5B00082DE9F04180460E46F2
:102180001546002731464046FFF7C9FE00240AE005
:10219000A74A02EB8511085D0121FFF77CFE781C40
:1021A000C7B2601CC4B2102CF2DB701CC1B2404636
:1021B000FFF7B5FE00240CE06900491C9C4A02EBC5
:1021C0004111085D0121FFF766FE781CC7B2601C53
:1021D000C4B2102CF0DBBDE8F0812DE9F05F804641
:1021E000894615464FF0000B284602F0A1FA00F090
:1021F000FF0A002454E0285D7F280ADC2A5D1023B2
:1022000049464046FFF7F9FE08F1080000F0FF08D4
:1022100044E0285D7F2841DD28194078295D40EAA7
:10222000012B002738E007EB0710824931F8100036
:1022300058452FD149464046FFF771FE00260BE076
:1022400007EB07117B4A02EB4101891C885D0121E4
:10225000FFF721FE701CC6B2102EF1DB09F1010060
:10226000C1B24046FFF75BFE10260BE007EB0711FB
:10227000704A02EB4101891C885D0121FFF70BFECA
:10228000701CC6B2202EF1DB08F1100000F0FF0830
:10229000601CC4B2781CC7B2652FC4D3601CC4B222
:1022A0005445A8DBBDE8F09F2DE9F05F06460F46D8
:1022B00090461C46DDF828A04FF0000BE11704EB18
:1022C0005171C910A4EBC10131B92046E11704EBEB
:1022D0005171C1F3C70506E02046E11704EB5171C7
:1022E000C910491CCDB23D4615E029463046FFF7DE
:1022F00016FEB1460BE059460BF1010B1AF801002E
:102300000121FFF7C8FD09F1010000F0FF09C145F7
:10231000F1DB681CC5B2A542E7DBBDE8F09F08B55C
:102320000121102000F088FF4FF44040ADF800007C
:1023300010208DF8030003208DF8020069463E4806
:1023400000F0BEFC4FF440413B4800F066FD4FF406
:10235000487000F062F90021AE20FFF79CFD0021DB
:102360000846FFF798FD00211020FFF794FD00219B
:102370004020FFF790FD0021B020FFF78CFD0021E9
:102380008120FFF788FD0021FF20FFF784FD002159
:10239000A120FFF780FD0021A620FFF77CFD002192
:1023A000A820FFF778FD00213F20FFF774FD0021F2
:1023B000C820FFF770FD0021D320FFF76CFD00213E
:1023C0000846FFF768FD0021D520FFF764FD0021D6
:1023D0008020FFF760FD0021D820FFF75CFD002181
:1023E0000520FFF758FD0021D920FFF754FD0021FB
:1023F000F120FFF750FD0021DA20FFF74CFD00210E
:102400001220FFF748FD0021DB20FFF744FD0021EB
:102410003020FFF740FD00218D20FFF73CFD00211B
:102420001420FFF738FD0021AF20FFF734FD08BD71
:10243000E40B0020266300080010014008B50121CC
:10244000042000F0F9FE48208DF803009020ADF83C
:1024500000006946174800F033FC9021154800F051
:10246000DCFC0220ADF8000010208DF803000320F2
:102470008DF8020069460F4800F022FC02210D4849
:1024800000F0CDFC08BD08B50121042000F0D4FE09
:1024900018208DF803004FF48070ADF800006946F5
:1024A000044800F00DFC4FF48071024800F0B5FCC8
:1024B00008BD00000008014000B589B001210420DA
:1024C00000F0C7FE0121082000F0B6FE18208DF8AC
:1024D00023004020ADF8200003208DF8220008A939
:1024E0001C4800F0EDFB1C4801F072FD0020ADF827
:1024F0001A00ADF8160044F61F60ADF8180047202A
:10250000ADF8140000208DF81C0005A9124801F058
:10251000CFF901A801F001FD6020ADF80400002012
:10252000ADF80C000120ADF806000020ADF80A005F
:1025300001A9094801F0F9F90121074801F014FD4A
:1025400009B000BD10B504462146034801F0A4FFC0
:1025500010BD0000000C01400008004010B5FFF75E
:10256000ABFF10BD2DE9F04104460A49204602F0B8
:1025700070F98046084902F03AF90746074902F027
:10258000DEF8064602F0A3F985B22846FFF7DAFF27
:10259000BDE8F0810000B4430000FA440000FA43B3
:1025A00010B56FF0040000F00CFB314800683149B1
:1025B000B0FBF1F0304908700846007800EB4001AC
:1025C000C1EBC0104FF6FF7101EAC0002B49088033
:1025D00010BD0146284A12784A434FF0E0235A6161
:1025E00000229A611A46126942F001021A6100BF84
:1025F0004FF0E022106900F001021AB100F48032BD
:10260000002AF5D04FF0E022126922F001024FF0CB
:10261000E0231A6100229A6170470146174A128826
:102620004A434FF0E0235A6100229A611A46126928
:1026300042F001021A6100BF4FF0E022106900F081
:1026400001021AB100F48032002AF5D04FF0E022E6
:10265000126922F001024FF0E0231A6100229A6110
:10266000704700200649087208604860C8607047DB
:10267000C40B002000127A00240C0020260C00203D
:10268000580C0020014600BF704700BF344A128832
:1026900002F04002002AF9D0C2B2314B1B1D1A8051
:1026A000704710B586B00446012144F2050000F0E1
:1026B000C3FD4FF40070ADF8140003208DF8160030
:1026C00018208DF8170005A9264800F0F9FA4FF4F4
:1026D0008060ADF8140004208DF8170005A921488A
:1026E00000F0EEFA25208DF8000001208DF80100A1
:1026F00003208DF8020001208DF80300684600F0E9
:1027000016FA01940020ADF80800ADF80A00ADF803
:102710000C00ADF810000C20ADF80E0001A9104817
:1027200000F031FE012240F225510D4800F0C3FEB9
:1027300001210B4800F0B3FE06B010BD10B540F209
:102740002551074800F09CFF48B140F2255104484C
:1027500000F0C0FF024800F013FF0349087010BDED
:1027600000380140000801402D0C00207FB50546CF
:102770000C460121022000F06CFDADF80850ADF8C8
:1027800004400020ADF80A00ADF8060001A96D482C
:1027900001F08EF8012211466A4801F000FC1D206C
:1027A0008DF8000000208DF8010003208DF8020054
:1027B00001208DF80300684600F0B9F90121614855
:1027C00001F0D2FB7FBD7FB505460C4601210846CE
:1027D00000F03FFDADF80450ADF800400020ADF82A
:1027E0000600ADF8020069464FF0804001F060F845
:1027F00001221146900701F0D2FB0121880701F068
:10280000B3FB1C208DF80C0000208DF80D00022079
:102810008DF80E0001208DF80F0003A800F087F955
:102820007FBD10B50121474801F067FE002872D036
:102830000121444801F072FE4348007838B943480A
:102840000068012803D042480078012805D1002003
:10285000404908704049088002E001203D49087065
:102860003C480078012805D13B480088401C3A4983
:10287000088002E0002038490880384800780128A4
:102880000ED137480078401C35490870084600785A
:10289000642805DD022033490870002030490870A3
:1028A00031480068401C3049086008460068142818
:1028B0000FDB2A4801782DA002F020FB2848017880
:1028C0002AA002F01BFB012029490870002026499C
:1028D000086028480068A0B927480078401C2649AD
:1028E000087026A002F00AFB23480078022808DBC3
:1028F00001201C49087000201F4908700120204950
:1029000008701C480068012805D100201A49087089
:102910001CA002F0F3FA10BD10B50121880701F0E8
:10292000ECFD70B11848008840F40040164908805A
:102930000121880701F0F2FD00214FF0804001F0F5
:1029400013FB10BD00040040BA0B0020008121429F
:10295000B80B0020340C0020320C0020BB0B0020F0
:10296000BF0B0020C10B0020380C002025640000A4
:10297000BE0B00201C012142410C00206100000020
:10298000C30B002062000000420C002010B540F292
:102990002551584800F074FE00B3564800F0F0FD91
:1029A000C4B25548008800F40040B8B952480088C5
:1029B000B0F5C87F13DA00214FF0804001F068FDC8
:1029C0004D48008818B90121880701F0CDFA4A491D
:1029D0000888411C484A118048490C5405E0464883
:1029E000008840F400404449088010BD10B586B00E
:1029F00004460121082000F01FFC0121880400F09A
:102A000028FC3C4800F07CFC4FF48060ADF81000DE
:102A100003208DF8120018208DF8130004A93848FF
:102A200000F04EF94FF40060ADF8100004208DF86E
:102A3000130004A9324800F043F900940020ADF8D7
:102A40000400ADF80600ADF80800ADF80C000C204D
:102A5000ADF80A006946274800F095FC0121254899
:102A600000F01DFD012240F22551224800F023FD17
:102A700027208DF8140002208DF8150003208DF812
:102A8000160001208DF8170005A800F050F841F657
:102A90001F416320FFF797FE00201749088000219F
:102AA0004FF0804001F060FA06B010BD0FB438B5A9
:102AB00005A800901348009A049902F043FA0020F8
:102AC0000090104801F034FE85B200240DE000BFF4
:102AD0004021084800F0BEFD0028F9D00948015DFA
:102AE000044800F049FD601C84B2AC42EFDB38BC06
:102AF0005DF814FB00480040420C0020680C0020E8
:102B0000000C0140F80D002005480047FEE7FEE7F5
:102B1000FEE7FEE7FEE7FEE7FEE7FEE7FEE7FEE78D
:102B2000ED00000831490143314A1160704770B52A
:102B3000002100230F22C47804B32D4C246804F430
:102B4000E064C4F5E064210AC1F10403CA4044789A
:102B500004FA03F18478144021430901254C0678D6
:102B6000A155047804F01F050124AC4005786D11CF
:102B7000AD0005F1E025C5F8004109E0047804F056
:102B80001F050124AC401C4D0678761145F82640FF
:102B900070BD1A4A0A400243154B1B1F1A6070474A
:102BA00039B1134A121D12680243114B1B1D1A60E2
:102BB00006E00F4A121D126882430D4B1B1D1A605E
:102BC0007047042808D14FF0E021096941F0040161
:102BD0004FF0E022116107E04FF0E021096921F098
:102BE00004014FF0E0221161704700000000FA0577
:102BF0000CED00E000E400E080E100E080FFFF1F5A
:102C000010B50446CC48844208D10121042000F0CC
:102C10002DFB0021042000F029FB46E0C748844238
:102C200008D10121082000F021FB0021082000F03C
:102C30001DFB3AE0C248844208D10121102000F077
:102C400015FB0021102000F011FB2EE0BD4884424E
:102C500008D10121202000F009FB0021202000F0F4
:102C600005FB22E0B848844208D10121402000F051
:102C7000FDFA0021402000F0F9FA16E0B348844242
:102C800008D10121802000F0F1FA0021802000F01D
:102C9000EDFA0AE0AE48844207D10121801500F028
:102CA000E5FA0021A01500F0E1FA10BD10B50121F0
:102CB000084600F0DBFA0021012000F0D7FA10BD31
:102CC0002DE9F041024600250026002000230024C3
:102CD000002791F803C00CF00F0591F803C00CF029
:102CE000100CBCF1000F03D091F802C04CEA0505AE
:102CF00091F800C0BCF1000F31D0146800202BE027
:102D00004FF0010C0CFA00F3B1F800C00CEA030616
:102D10009E4220D183004FF00F0C0CFA03F7BC4306
:102D200005FA03FC4CEA040491F803C0BCF1280F37
:102D300006D14FF0010C0CFA00FCC2F814C00AE0F6
:102D400091F803C0BCF1480F05D14FF0010C0CFA0B
:102D500000FCC2F810C0401C0828D1D31460B1F8A0
:102D600000C0BCF1FF0F34DD546800202EE000F1FC
:102D7000080C4FF0010808FA0CF3B1F800C00CEA97
:102D800003069E4221D183004FF00F0C0CFA03F78B
:102D9000BC4305FA03FC4CEA040491F803C0BCF1FF
:102DA000280F05D100F1080C08FA0CF8C2F81480BD
:102DB00091F803C0BCF1480F07D100F1080C4FF0A7
:102DC000010808FA0CF8C2F81080401C0828CED37D
:102DD0005460BDE8F0814FF6FF71018002218170DF
:102DE0000421C17070470246002093680B400BB16C
:102DF000012000E0002070470146886880B27047DB
:102E000002460020D3680B400BB1012000E00020F7
:102E100070470146C86880B27047016170474161E0
:102E200070470AB1016100E041617047C1607047BD
:102E30004FF480320A4382618161826182698269D2
:102E4000704702460020434B18684FF680731840C5
:102E500040EA021008433F4B186070473E49C86182
:102E60007047F0B50A46002300240021002500F039
:102E70000046B6F1004F02D1364EF16901E0354E01
:102E80007168C0F3034583B200F44016B6F5401FE5
:102E900008D121F070612F4E766826F070662D4FB4
:102EA0007E6012E000F48016B6F5801F06D103267E
:102EB00006FA05F4A14341F0706106E0460D3601C3
:102EC00003FA06F6B14341F0706122B1460D3601B6
:102ED00003FA06F6314300F00046B6F1004F02D186
:102EE0001C4EF16101E01B4E7160F0BD30B5002257
:102EF0008B071C0F0F2303FA04F2164B08338C10B8
:102F000053F824309343134C08348D1044F8253083
:102F100023468C1053F824308C07240F00FA04F455
:102F200023430C4C08348D1044F8253030BD0A4939
:102F3000DC3108607047000000080140000C0140CF
:102F4000001001400014014000180140001C014025
:102F5000002001400000014000002042DF480068DE
:102F600040F00100DD49086008464068DC4908403F
:102F7000DA49486008460068DA490840D7490860DD
:102F80000846006820F4802008600846406820F465
:102F9000FE0048604FF41F0088607047CF49096801
:102FA00021F48031CD4A11601146096821F4802155
:102FB0001160B0F5803F03D0B0F5802F0ED106E050
:102FC000C649096841F48031C44A116007E0C34929
:102FD000096841F4A021C14A116000E000BF00BFB0
:102FE000704710B501460022002300204A11012A33
:102FF00002D1BA4C236806E0022A02D1B74C236AF8
:1030000001E0B64C636A01F01F02012494401C40A9
:103010000CB1012000E0002010BD38B50020009068
:103020000024002500BF3120FFF7DBFF0546009894
:10303000401C00900098B0F5A06F01D0002DF2D098
:103040003120FFF7CEFF08B1012400E00024204624
:1030500038BD01460020A14A106820F0F80040EA7F
:10306000C10010607047A049086070470246002008
:103070009A4B586820F47C1042EA01031843974B9E
:103080005860704798490866704701460020934A87
:10309000506820F003000843506070478F48406834
:1030A00000F00C007047014600208C4A506820F068
:1030B000F00008435060704701460020874A50687E
:1030C00020F4E06008435060704701460020834AC6
:1030D000506820F4605040EAC1005060704729B148
:1030E0007E4A527A02437D4B5A7204E07B4A527AFE
:1030F00082437A4B5A7270477B49D83108607047D7
:1031000001460020754A506820F440400843506052
:1031100070470021714A20321170704A82F82010E5
:10312000012802D004280AD104E001216B4A203290
:10313000117005E00521694A2032117000E000BFDE
:1031400000BF70476949086070476449096A0143D4
:10315000624A11627047654944390860704730B56A
:1031600000210022002400235C4D6D6805F00C0155
:1031700021B1042905D0082923D105E05C4D056063
:1031800022E05B4D05601FE0544D6D6805F4701240
:10319000524D6D6805F48034022505EB92421CB94E
:1031A000544D554305600BE04C4D6D6805F40035FA
:1031B0001DB1504D5543056002E04D4D554305602E
:1031C00002E04B4D056000BF00BF444D6D6805F047
:1031D000F0010909484D6B5C0568DD4045603F4DD5
:1031E0006D6805F4E061090A434D6B5C4568DD409C
:1031F00085603A4D6D6805F46051C90A3E4D6B5CBF
:103200004568DD40C560354D6D6805F44041890B6A
:103210003A4D6B5CC568B5FBF3F5056130BD29B16E
:103220002E4A526902432D4B5A6104E02B4A5269DF
:1032300082432A4B5A61704729B1284A9269024356
:10324000264B9A6104E0254A92698243234B9A6196
:10325000704729B1214AD2690243204BDA6104E068
:103260001E4AD26982431D4BDA61704729B11B4A5D
:10327000D2680243194BDA6004E0184AD2688243EC
:10328000164BDA60704729B1144A12690243134B96
:103290001A6104E0114A12698243104B1A617047A7
:1032A00012494039086070470F49C86470470B499C
:1032B000C87170470948406A40F080700749486209
:1032C000704701460020054A92680A400AB1012071
:1032D00000E00020704701498872704700100240EA
:1032E0000000FFF8FFFFF6FE000042428004424269
:1032F00000127A0000093D00440C0020540C00200C
:1033000010B50446FB48844209D101218803FFF728
:10331000ADFF00214FF48040FFF7A8FF32E0F648F0
:10332000844209D101214804FFF7ADFF00214FF489
:103330000030FFF7A8FF25E0F048844209D10121C1
:103340008804FFF7A0FF00214FF48020FFF79BFFC8
:1033500018E0EB48844209D10121C804FFF793FF2C
:1033600000214FF40020FFF78EFF0BE0E548844278
:1033700008D101210805FFF786FF00214FF48010D6
:10338000FFF781FF10BD2DE9F04786B005460E46D8
:103390000024A24600BFA1460027B08900B100BFAB
:1033A0002F462C8A4CF6FF700440F08804432C8290
:1033B000AC894EF6F3100440B08831890843718916
:1033C00008430443AC81AC8A4FF6FF400440B08907
:1033D0000443AC8201A8FFF7C2FEC648874202D16F
:1033E000DDF810A001E0DDF80CA0A88900F4004091
:1033F00040B10AEBCA0000EB0A1031684900B0FB8B
:10340000F1F807E00AEBCA0000EB0A103168890006
:10341000B0FBF1F86420B8FBF0F00401200964214E
:1034200001FB1089A88900F4004040B1322000EB74
:10343000C900B0FBF1F000F00700044308E03220BF
:1034400000EB09106421B0FBF1F000F00F00044321
:103450002C8106B0BDE8F0874FF4165101600021C1
:103460008180C18001810C214181002181817047CF
:1034700010B502460020108A4FF2FF0318400B8857
:103480004C8823438C882343CC88234318431082E1
:1034900010BD0021018041808180C180704721B131
:1034A000828942F40052828104E082894DF6FF73E2
:1034B0001A4082817047F0B503460024002600259B
:1034C000002040F66A17B94200D100BF1846C1F388
:1034D000421401F01F06012707FA06F5012C01D15D
:1034E0000C3004E0022C01D1103000E014301AB18D
:1034F00007682F43076002E00768AF430760F0BD2D
:103500001AB1838A0B43838202E0838A8B438382CE
:103510007047028A4FF6F0731A400282028A0A4309
:103520000282704782894FF2FF731A40828182893A
:103530000A438281704721B1828942F0020282816E
:1035400004E082894FF6FD731A4082817047028A37
:103550004FF6DF731A400282028A0A4302827047E2
:1035600021B1028A42F48042028204E0028A4BF6D0
:10357000FF731A4002827047C1F3080282807047CD
:1035800001468888C0F308007047818941F0010135
:1035900081817047028BD2B20283028B42EA012200
:1035A00002837047028B02F47F420283028B0A433C
:1035B0000283704721B1828A42F02002828204E0B5
:1035C000828A4FF6DF731A408282704721B1828A65
:1035D00042F01002828204E0828A4FF6EF731A40B2
:1035E0008282704721B1828A42F00802828204E01E
:1035F000828A4FF6F7731A408282704721B182891E
:1036000042F40042828103E08289C2F30E02828189
:10361000704721B1828A42F40062828204E0828A89
:103620004FF2FF731A4082827047828A4FF6FB7313
:103630001A408282828A0A438282704721B1828A3A
:1036400042F00202828204E0828A4FF6FD731A4041
:103650008282704702460020B1F5007F00D100BF92
:1036600013880B400BB1012000E00020704701F4EB
:103670000072B2F5007F00D100BFCA4302807047DC
:1036800070B50246002400230025002040F66A168B
:10369000B14200D100BFC1F3421501F01F03012662
:1036A00006FA03F3012D02D19689334006E0022D7C
:1036B00002D1168A334001E0968A33400C1201266B
:1036C00006FA04F41688344013B10CB1012000E06E
:1036D000002070BD10B50022002340F66A14A142FC
:1036E00000D100BF0A1201249440A3B2DC4304803D
:1036F00010BD000000380140004400400048004078
:10370000004C00400050004010B50446FE48844282
:1037100008D10121C014FFF7A9FD0021E014FFF733
:10372000A5FDC4E0B4F1804F08D101210846FFF7A0
:10373000AAFD00210120FFF7A6FDB8E0F34884426E
:1037400008D101210220FFF79EFD00210220FFF792
:103750009AFDACE0EE48844208D101210420FFF735
:1037600092FD00210420FFF78EFDA0E0E94884428D
:1037700008D101210820FFF786FD00210820FFF76E
:1037800082FD94E0E448844208D101211020FFF733
:103790007AFD00211020FFF776FD88E0DF488442A3
:1037A00008D101212020FFF76EFD00212020FFF726
:1037B0006AFD7CE0DA48844208D101214014FFF719
:1037C00055FD00216014FFF751FD70E0D54884429B
:1037D00009D10121C804FFF749FD00214FF4002061
:1037E000FFF744FD63E0D048844209D10121080578
:1037F000FFF73CFD00214FF48010FFF737FD56E046
:10380000CA48844209D101214805FFF72FFD002154
:103810004FF40010FFF72AFD49E0C548844208D163
:1038200001214020FFF72FFD00214020FFF72BFD55
:103830003DE0C048844208D101218020FFF723FDEC
:1038400000218020FFF71FFD31E0BB48844208D1F2
:1038500001218015FFF717FD0021A015FFF713FDCB
:1038600025E0B648844209D101210804FFF7FEFC97
:1038700000214FF48030FFF7F9FC18E0B048844293
:1038800009D101214804FFF7F1FC00214FF4003079
:10389000FFF7ECFC0BE0AB48844208D1012188041F
:1038A000FFF7E4FC00214FF48020FFF7DFFC10BDA0
:1038B00000220288944B98420ED0994B98420BD02C
:1038C000B0F1804F08D0914B984205D0904B984270
:1038D00002D0904B984204D14FF68F731A404B8818
:1038E0001A438D4B984207D08C4B984204D04FF628
:1038F000FF431A40CB881A4302808B8883850B884C
:103900000385814B98420BD0854B984208D08B4B56
:10391000984205D08A4B984202D08A4B984201D1F6
:103920000B7A038601238382704770B5002400223E
:103930000023058C4FF6FE7635400584028C838883
:10394000048B4FF68F752C40B51E2C400D882C43F0
:10395000751E2A400D892A434D882A436A4DA84284
:103960000BD06F4DA84208D0744DA84205D0744DBD
:10397000A84202D0734DA84213D14FF6F7752A40E2
:103980004D892A434FF6FB752A408D882A434FF60E
:10399000FF652B404FF6FF552B408D892B43CD897A
:1039A0002B4383800483CD888586028470BD70B5E7
:1039B000002400220023058C4FF6EF763540058465
:1039C000028C8388048B48F6FF752C404FF6FF4528
:1039D0002C400D884FF6FF7606EA05252C434FF65E
:1039E000DF752A400D8906EA05152A434D8806EA47
:1039F00005152A43444DA84202D0494DA8421DD185
:103A00004FF67F752A404D894FF6FF7606EA051579
:103A10002A434FF6BF752A408D8806EA05152A43CA
:103A20004FF6FF352B404FF2FF752B408D8906EA8C
:103A300085052B43CD8906EA85052B4383800483C6
:103A4000CD880587028470BD70B500240022002354
:103A5000058C4FF6FF6635400584028C8388848B85
:103A60004FF68F752C404FF6FC752C400D882C437B
:103A70004FF6FF552A400D894FF6FF7606EA0525D9
:103A80002A434D8806EA05252A431F4DA84202D045
:103A9000234DA8421DD14FF2FF752A404D894FF6A4
:103AA000FF7606EA05252A434FF6FF352A408D8822
:103AB00006EA05252A434EF6FF752B404DF6FF75A5
:103AC0002B408D8906EA05152B43CD8906EA05159D
:103AD0002B4383808483CD888587028470BD70B535
:103AE000002200230024058C4EF6FF763540058425
:103AF000038C8488828B48F6FF752A404FF6FF4579
:103B00002A400D8820E00000002C01400004004005
:103B100000080040000C004000100040001400406D
:103B200000340140004C014000500140005401406D
:103B300000180040001C00400020004000400140F0
:103B400000440140004801404FF6FF7606EA052593
:103B50002A434DF6FF752B400D8906EA05352B43A8
:103B60004D8806EA05352B43FA4DA84202D0FA4D9E
:103B7000A84208D14BF6FF752C408D894FF6FF7691
:103B800006EA85152C4384808283CD88A0F84050B6
:103B9000038470BD828B4FF2FF331A408283828B85
:103BA0004FF6FF7303EA01231A4382837047F0B58F
:103BB0000C461546002200210026078C4EF6FF7C9D
:103BC00007EA0C070784828B018C4FF6FF7707EA20
:103BD000043640F6FF473A404FF6FF7707EA0527DD
:103BE0003A434FF6FF7707EA03373A43D94FB842D3
:103BF0000ED0D94FB8420BD0B0F1804F08D0D74F7C
:103C0000B84205D0D64FB84202D0D64FB84206D1FE
:103C10004DF6FF77394046F48057394305E047F6C3
:103C2000FF57394044F48057394382830184F0BD03
:103C3000828B4FF6F3731A408283828B0A4382830E
:103C40007047F0B50C461546002200210026078C6F
:103C50004FF6FF6C07EA0C070784828B018C4FF646
:103C6000FF7707EA04264FF60C773A404FF6FF77C6
:103C700007EA03172F433A43B64FB8420ED0B64F68
:103C8000B8420BD0B0F1804F08D0B44FB84205D045
:103C9000B34FB84202D0B34FB84206D14FF6FF57E8
:103CA000394046F48077394305E04FF2FF573940F9
:103CB00044F48077394382830184F0BD028B4FF254
:103CC000FF331A400283028B4FF6FF7303EA01238E
:103CD0001A4302837047F0B50C46154600220021B6
:103CE0000026078C4FF6EF7C07EA0C070784028B4F
:103CF000018C4FF6FF7707EA041640F6FF473A407B
:103D00004FF6FF7707EA03373A434FF6FF7707EAA4
:103D100005273A438F4FB8420ED08F4FB8420BD091
:103D2000B0F1804F08D08D4FB84205D08C4FB842CB
:103D300002D08C4FB84206D14FF6DF77394046F0BB
:103D40001007394305E04FF65F77394044F010071C
:103D5000394302830184F0BD028B4FF6F3731A409E
:103D60000283028B0A4302837047F0B50C46154666
:103D700000220021068C4FF6FE773E400684028B1F
:103D8000018C4FF60C7632407E1C06EA03162E4359
:103D90003243704EB0420ED06F4EB0420BD0B0F1F5
:103DA000804F08D06D4EB04205D06D4EB04202D06B
:103DB0006C4EB04206D14FF6FD76314044F001061C
:103DC000314305E04FF6F576314044F001063143CA
:103DD00002830184F0BD70B505460C465D488542FE
:103DE0000ED05D4885420BD0B5F1804F08D05B48BE
:103DF000854205D05A48854202D05A48854200D1B2
:103E000000E000BF208850B92389A2886188284635
:103E1000FFF7ABFFE1882846FFF79EFF25E02088EB
:103E200004280AD12389A28861882846FFF753FF16
:103E3000E1882846FFF742FF17E0208808280AD1CA
:103E40002389A28861882846FFF7FBFEE18828467F
:103E5000FFF7EEFE09E02389A28861882846FFF774
:103E6000A6FEE1882846FFF795FE70BD2DE9F041DA
:103E700005460C4600260127608808B9022600E0A6
:103E80000026A088012801D1022700E00127208810
:103E9000A0B92389A28861882846FFF766FFE188D8
:103EA0002846FFF759FF23893A4631462846FFF74F
:103EB00012FFE1882846FFF701FF13E02389A2885B
:103EC00061882846FFF707FFE1882846FFF7F6FEDE
:103ED00023893A4631462846FFF747FFE1882846BE
:103EE000FFF73AFFBDE8F0810A884B881A438B88B8
:103EF0001A43CB881A430B891A434B891A438B897F
:103F00001A43A0F8442070474FF6FF7181800021CA
:103F10000180C18041800172704700210180418091
:103F20008180C180018141818181C18170470021EF
:103F300001804180012181800021C1800181704781
:103F40000021018041808180C18001814181818186
:103F500070470000002C0140003401400004004084
:103F600000080040000C004021B1028842F001022C
:103F7000028004E002884FF6FE731A400280704708
:103F800031B1B0F8442042F40042A0F8442005E0EA
:103F9000B0F84420C2F30E02A0F8442070471AB1D2
:103FA00083890B43838102E083898B43838170473C
:103FB0008182704741EA0203A0F8483070471AB185
:103FC00083890B43838102E083898B43838170471C
:103FD00001894FF6F8721140018170470A460021AD
:103FE00001894FF68F73194011430181704730B535
:103FF00004460D4629462046FFF7F0FF208940F091
:104000000700208130BD2DE9F04104460D461646DB
:104010001F46602D06D13B46012231462046FFF760
:104020005AFE05E03B46012231462046FFF79DFE41
:1040300029462046FFF7D2FF208940F00700208163
:10404000BDE8F08130B50C4600210189C9B24FF6B8
:10405000FF7505EA0325154325432943018130BD3A
:104060002DE9F04105460E46174698460024434682
:104070003A4631462846FFF7E5FF2C894FF6F8709F
:10408000044044F007044FF68F70044044F070047D
:104090002C81BDE8F081F0B504460D4616461F465A
:1040A0003B46324629462046FFF7CCFF208940F4A4
:1040B00080402081F0BD0185828270470A46002140
:1040C00001884FF68F731940114301807047F0B596
:1040D0000C4615461E460021002200230189028B52
:1040E000038C4FF6F877394021434FF6FC473A40AE
:1040F00040F201173A434FF6DD773B404FF6FF772A
:1041000007EA06172F433B43018102830384F0BD76
:104110000A460021018B4FF68F731940114301832A
:1041200070470A460021018B48F6FF7319404FF68D
:10413000FF7303EA02231943018370470A460021F3
:10414000818B4FF68F7319401143818370470A4664
:104150000021818B48F6FF7319404FF6FF7303EA85
:10416000022319438183704721B1028842F0800203
:10417000028004E002884FF67F731A400280704785
:1041800021B1828842F00402828004E082884FF6E6
:10419000FB731A408280704721B1828842F0080286
:1041A000828004E082884FF6F7731A40828070475D
:1041B00021B1828842F00102828004E082884FF6B9
:1041C000FE731A40828070470A460021018B4FF629
:1041D000F77319401143018370470A460021018B90
:1041E0004FF2FF7319404FF6FF7303EA022319439E
:1041F000018370470A460021818B4FF6F7731940FF
:104200001143818370470A460021818B4FF2FF736F
:1042100019404FF6FF7303EA022319438183704765
:104220000A460021018B4FF6FB73194011430183AD
:1042300070470A460021018B4FF6FF3319404FF6B5
:10424000FF7303EA02231943018370470A460021E2
:10425000818B4FF6FB7319401143818370470A46E7
:104260000021818B4FF6FF3319404FF6FF7303EAAD
:1042700002231943818370470A460021018B4FF6C0
:104280007F7319401143018370470A460021018B57
:10429000C1F30E014FF6FF7303EA022319430183B2
:1042A00070470A460021818B4FF67F7319401143F6
:1042B000818370470A460021818BC1F30E014FF6BE
:1042C000FF7303EA02231943818370470A460021E2
:1042D000018C4FF6FD7319401143018470470A4663
:1042E0000021018C4FF6F773194011430184704788
:1042F0000A460021018C4FF6DF7319404FF6FF7319
:1043000003EA02131943018470470A460021018C15
:104310004FF67F7319404FF6FF7303EA02131943F8
:10432000018470470A460021018C4FF6FF53194063
:104330004FF6FF7303EA02231943018470470A46CC
:104340000021018C4FF2FF7319404FF6FF7303EA0F
:1043500002231943018470470A460021018C4DF65F
:10436000FF7319404FF6FF7303EA023319430184C8
:10437000704730B5002301248C40A3B2048C9C43C9
:104380000484048C02FA01F5ADB22C43048430BDE0
:1043900030B5002304248C40A3B2048C9C430484D5
:1043A000048C02FA01F5ADB22C43048430BD70B523
:1043B0000346002000241846183001258D40ACB279
:1043C0001D8CA5431D8409B1082909D100EB6100AA
:1043D000056825F0700505600568154305600EE069
:1043E0000D1FC5F34E052844056825F4E04505601A
:1043F00005684FF6FF7606EA02263543056070BD74
:1044000021B1028842F00202028004E002884FF6E5
:10441000FD731A400280704721B1028842F0040205
:10442000028004E002884FF6FB731A400280704756
:1044300021B1828842F08002828004E082884FF6B7
:104440007F731A408280704702884FF6F7731A40D4
:10445000028002880A430280704782884FF68F7379
:104460001A40828082880A438280704702894FF610
:10447000F8731A40028102890A4302817047028957
:104480004FF67F731A40028102890A430281704706
:1044900081847047818570478186704701877047A6
:1044A00081877047A0F84010704702884FF6FF439D
:1044B0001A40028002880A43028070470146888EB3
:1044C00070470146088F70470146888F7047014644
:1044D000B1F8400070470146888C70470146088D4E
:1044E000704702460020138A0B400BB1012000E008
:1044F00000207047CA430282704730B50246002050
:1045000000230024158A05EA0103958905EA0104C0
:1045100013B10CB1012000E0002030BDCA4302827B
:1045200070470000002044490860091D0860091D0B
:104530000860091D086041483F4914310860704710
:1045400000213D498279002A3AD00A461268036860
:104550009A430B461A600A1D126803689A430B1DA2
:104560001A60027911440A6803681A430A60324AE1
:104570000832126803689A432F4B08331A601A1DD9
:10458000126803689A432C4B0C331A604279102A44
:104590000ED11A1F126803681A43274B08331A609A
:1045A0001A1D126803681A43234B0C331A600DE07E
:1045B0002149427911440A6803681A430A6005E0F8
:1045C000027911440A6803689A430A60704700211F
:1045D000016001710C214171002181717047164900
:1045E000103109680143144A1032116070470146C6
:1045F0000020114A143212680A400AB1012000E07A
:10460000002070470C4914310860704701460020B3
:104610000022094B1B6803EA0102074B14331B6895
:104620000B4013B10AB1012000E00020704702499D
:10463000143108607047000000040140FFFF0F00C4
:1046400010B501210807FEF71EFE00214FF0805033
:10465000FEF719FE10BD2A49086270472849086113
:10466000704701460020274A106820F0E000084308
:10467000106070472249A0310860704710B50246AB
:104680000020204B186820F00300104318601E4BD8
:104690001B6843F004031C4C2360012901D130BF87
:1046A00000E020BF184B1B6823F00403164C236066
:1046B00010BD1448006840F0040012490860084624
:1046C000006840F0020008600F48006840F00400F5
:1046D0000D49086000BF00BF30BF70470146002091
:1046E000084A52680A400AB1012000E000207047E1
:1046F0000449096841EA8001024A116070470000DC
:1047000000000E420070004010ED00E030B505469C
:104710002A460B4612F8010B13F8014B08B1A042D0
:10472000F8D01CB1002802D06D1CF1E7284630BD3E
:10473000421C10F8011B0029FBD1801A7047F0B40D
:1047400080EA0102D40F4200B2EB410F02D20246CE
:10475000084611464A0042D0C30DDDB2C1F3C7522C
:10476000AD1A202D35DAC1F3160141F4000204B16F
:104770005242C5F1200602FA06F12A411044B3EB79
:10478000D05F23D0C4B1012DA0EBC35009DCF0BC35
:104790004FF0004202EAC352DBB200F5000000F025
:1047A000FAB8400000F1807000EBC350A0F18070B7
:1047B00040EAD170490009E0490841EAC071A0EB24
:1047C000C35000F50000400800EBC350F0BC00F0FF
:1047D000D9B86142012202EB4101001BF6E7F0BCAF
:1047E000704781F00041AAE780F00040A7E780EA27
:1047F000010210B502F00043400022D04A001FD051
:10480000010E01EB1261C0F35600C2F3560240F4F0
:10481000000042F40002A0FB022000047F391404CF
:1048200000D0401C50EA124001D44000491EC2B2E0
:104830000C0604EBD010401C4008802A02D003E094
:10484000002010BD20F00100002900DA00201843EC
:1048500010BD30B480EA010202F0004530F00042A1
:1048600021F0004013D090B1C30DD40DC2F3160156
:10487000C0F31600E41A41F4000140F400027D3454
:10488000914201D3641C00E04900002C02DA30BCE4
:10489000002070474FF400000023914201D3891A91
:1048A000034340084FEA4101F7D151B1914202D18F
:1048B0004FF0004105E002D24FF0010101E06FF03E
:1048C000010103EBC450284430BC00F05BB820F079
:1048D0000040C10DC0F3160040F400007F2901DA4A
:1048E00000207047962903DCC1F19601C84070474B
:1048F00096398840704730B50B460146002020228B
:10490000012409E021FA02F59D4205D303FA02F5DC
:10491000491B04FA02F52844151EA2F10102F1DC3C
:1049200030BD2DE9F05F0546002092469B46884643
:104930000646814640241BE028464146474622461B
:1049400000F031FA53465A46C01A914110D311462D
:104950001846224600F018FA2D1A67EB01084F4658
:1049600022460120002100F00FFA17EB00094E410A
:10497000201EA4F10104DFDC484631462A464346A6
:10498000BDE8F09F0029A8BF7047401C490008BF40
:1049900020F00100704710B4B0FA80FC00FA0CF06F
:1049A00050EA010404BF10BC704749B1CCF12004A7
:1049B00021FA04F411FA0CF118BF01212143084334
:1049C000A3EB0C01CB1D4FEA00614FEA102042BF60
:1049D000002010BC704700EBC35010440029A4BF56
:1049E00010BC7047401C490008BF20F0010010BCFB
:1049F00070472DE9FE4F804681EA0300C00F0C4648
:104A0000009021F0004123F00045B8EB0200A941DD
:104A100005D24046214690461C460B46024623F0EE
:104A20000040104347D0270DC7F30A00C3F30A51D3
:104A30000290401A019040286BDAC3F3130040F44F
:104A4000801B0098924620B10023D2EB030A63EB4F
:104A50000B0B01985946C0F14002504600F094F902
:104A600006460D4650465946019A00F0ACF910EB47
:104A700008006141002487EA115284EAE7731A436F
:104A800040D0009A62B3019A012A4FEA075215DC1E
:104A9000001B61EB02014FF0004202EA0752CDE930
:104AA0000042001C41F5801132462B4600F0ACF963
:104AB00003B0BDE8F08F40462146F9E7001B61EBEB
:104AC0000201001C41F5801300185B412018A2F57B
:104AD000001747EB030140EAD570B6196D4111E0AC
:104AE0006D084FEA360645EAC0754FEA0752001BCB
:104AF00061EB0201001C41F5801149084FEA3000CA
:104B00000019514132462B4603B0BDE8F04F00F08A
:104B10006CB90098012240000023D0EB020263EB45
:104B2000E073009821464FEAE074B8EB000061EBB7
:104B30000401E9E783F000435BE781F0004158E7B7
:104B40002DE9FE4F81EA030404F0004421F0004106
:104B500000944FF0000B23F0004350EA01045ED0B4
:104B600052EA03045BD0C3F30A54C1F30A552C4440
:104B7000A4F2F3340194A0FB0254C1F3130141F4F5
:104B80008011C3F3130343F4801301FB024400FBC1
:104B9000034E840A970A44EA815447EA8357A4FBE8
:104BA000076802958D0A05FB07854FEA932C04FBE5
:104BB0000C542705029D4FEA065847EA1637B5EB15
:104BC00008056EEB070C870E920E47EA811742EA42
:104BD0008312A7FB0201B6EB0B0164EB00042B0D63
:104BE00043EA0C335E1844EB1C50DA465146E7FBAF
:104BF0000201C5F313044FEA0B3343EA14534FEA9F
:104C00000432019C43EA0603A4F10C040294009CC4
:104C1000CDE900B400F0F8F803B0BDE8F08F002053
:104C20000146F9E72DE9F04D81EA030404F0004B59
:104C300021F0004514464FF0000A23F0004150EAED
:104C4000050220D054EA01021DD0C5F30A570246DE
:104C5000C5F31303C1F31300C1F30A5640F48015E2
:104C600043F48013A7EB0608101BD64608F2FD3864
:104C700073EB050002D308F1010801E092185B41D3
:104C8000B8F1000F03DA00200146BDE8F08D0020E6
:104C90004FF48011064684460EE0171B73EB0507A0
:104CA00005D3121B63EB050306434CEA010C4908CC
:104CB0004FEA300092185B4150EA0107EDD152EA09
:104CC000030012D082EA040083EA0501084305D0FC
:104CD000101BAB4106D20122002306E000224FF058
:104CE000004302E06FF0010253101AEB06004CEB98
:104CF000085110EB0A0041EB0B01BDE8F04D00F04C
:104D000074B8C1F30A52C1F3130140F2FF3341F406
:104D100080119A4202DA00200146704740F2334384
:104D20009A42A2F2334202DC524200F03CB800F058
:104D30002BB8000030B5041E71F1000404DB4FF005
:104D40000044404264EB0101141E73F1000405DBD2
:104D50001C464FF00043524263EB0403994208BFE4
:104D6000904230BD064C074D06E0E06840F001037C
:104D700094E8070098471034AC42F6D3FBF7BAF931
:104D800090700008B0700008202A04DB203A00FA76
:104D900002F1002070479140C2F1200320FA03F392
:104DA000194390407047202A04DB203A21FA02F090
:104DB0000021704721FA02F3D040C2F12002914055
:104DC000084319467047202A06DBCB17203A41FAE0
:104DD00002F043EAE07306E041FA02F3D040C2F188
:104DE0002002914008431946704710B5141E73F114
:104DF000000408DA401C41F1000192185B411A439B
:104E000001D120F0010010BD2DE9F04D92469B46E6
:104E100011B1B1FA81F202E0B0FA80F2203290468C
:104E2000FFF7B2FF04460F4640EA0A0041EA0B01D1
:104E300053465A46084313D0114653EA010019D08D
:104E4000C8F140025046FFF7AEFF05460E465046F9
:104E500059464246FFF798FF084305D0012004E079
:104E600020463946BDE8F08D0020054346EAE0764D
:104E70002C4337430A986305E40AA0EB080000229C
:104E8000FD0A44EA47540A3002D500200146E9E70A
:104E9000010510196941DDE9084500196941BDE8BE
:104EA000F04DA2E770B58C1810F8015B15F0070300
:104EB00001D110F8013B2A1106D110F8012B03E0B3
:104EC00010F8016B01F8016B5B1EF9D12B0705D4BB
:104ED0000023521E0DD401F8013BFAE710F8013B04
:104EE000CB1A921C03E013F8015B01F8015B521E20
:104EF000F9D5A142D8D3002070BD00000FB4054BF6
:104F000010B503A9044A029800F000F910BC5DF83E
:104F100014FB00008B260008280C00200FB4084B5F
:104F200010B504A902AA039800F0F0F8044602A9FB
:104F3000002000F0E2FD204610BC5DF814FB0000EC
:104F4000FB5A000837B514460846064B6A46214608
:104F500000F03CFA04466946002000F0D3FD2046EC
:104F60003EBD0000055B000802E008C8121F08C132
:104F7000002AFAD170477047002001E001C1121FDA
:104F8000002AFBD1704700002DE9FF5F82B00021AD
:104F9000DDE90430020DDDF840B0034318D044F6DB
:104FA0001050A2F2FF3242431514119801281FD06D
:104FB000A5EB0B00401C5FEA000A4FF000064E4FC5
:104FC000DFF83891B046504615D5CAF1000413E019
:104FD000119801244AA3012801D16FEA0B0102981C
:104FE000119AC0E90031C0E9024206B0BDE8F09F65
:104FF000CBF10000DFE704460021404A491842EBAC
:105000000450CDE9001012E0E00707D032463B46DD
:1050100040464946FFF794FD8046894632463B4666
:1050200010461946FFF78CFD06460F466410002C0B
:10503000EAD1DDE90401DDE90023BAF1000F06DA67
:10504000FFF77EFD42464B46FFF77AFD05E0FFF78E
:10505000E9FD42464B46FFF7E5FD04460E460022B9
:10506000284BFFF767FE03D84FF0FF30014607E0FB
:105070000022254B20463146FFF7BBFCFFF741FEDF
:10508000102409E0002C0ADB0A220023FFF749FC68
:10509000039B30321A55641E50EA0102F2D1641C9F
:1050A000039AC4F111031444119A012A03D0012276
:1050B00008430DD10AE0084304D000204FF0110B43
:1050C000119072E7A3EB0B056D1E0DE05B4504DD4F
:1050D0004FF0000205F1010504E003DA4FF0000291
:1050E000A5F10105002AECD002981199C0E902311E
:1050F000C0E9004579E70000000014400000F03FDF
:10510000300000000000F0430000E03F2DE9FF4FB9
:105110008DB09B460F460446002606E025280BD09E
:105120005A460F999047641C761C20780028F5D1C8
:1051300011B03046BDE8F08F0025A84601229849FD
:1051400000E0054314F8013F203B02FA03F0084257
:10515000F7D120782E2817D114F8010F45F0040557
:105160002A280ED06FF02F022078A0F130010929F3
:105170000AD808EB880102EB410100EB0108641C2E
:10518000F2E757F8048B641C20786C280DD004DCFF
:105190004C2812D06A2811D104E074280DD07A2846
:1051A0000CD10AE045F4001507E0617845F480155C
:1051B000814202D1641C05F58015641C2278692A9D
:1051C00045D008DC002AB3D0582A69D0632A10D011
:1051D000642A08D13BE0702A67D0732A13D0752A5D
:1051E0005CD0782A5CD010465A460F999047761CBE
:1051F000D3E017F8040B8DF8000000208DF80100B3
:10520000E946012003E057F8049B4FF0FF3069079F
:105210004FF0000501D40AE06D1C45450DDA8542CA
:10522000FADB19F805100029F6D106E06D1C85425D
:10523000FCDB19F805100029F8D12E4404E019F818
:10524000010B5A460F9990476D1EF8D2A5E00A202F
:105250000021CDE90801C5F3025002280DD001CF8D
:10526000C117031E71F100030DDA4FF0000CD0EBF3
:105270000C006CEB01012D2308E0FF1D27F0070750
:10528000F7E80201EDE72B0504D52B238DF8283034
:1052900001233BE0EB0739D02023F7E70A2000E0A9
:1052A00010200021CDE9080107E01020002145F081
:1052B0000405CDE908014FF00808C5F302500228A3
:1052C0000FD001CF00214FF0000A2B071FD5702A05
:1052D0000DD0DDE908C38CF0100C5CEA030C0CD097
:1052E00015E0FF1D27F00707F7E80201EBE7402272
:1052F0008DF828204FF0010A0BE050EA010306D098
:1053000030238DF828308DF8292002239A46582A18
:1053100004D024A20DF120090B9209E026A2F9E79E
:10532000DDE90823FFF7FDFA0B9B9B5C09F8013DC3
:1053300050EA0102F4D1ADEB090020300890680773
:1053400001D44FF001080899884502DDA8EB01005F
:1053500000E000208046002506E00AA85A46405D8D
:105360000F9990476D1C761C5545F6DB04E0302004
:105370005A460F999047761CB8F10001A8F1010830
:10538000F5DC05E019F8010B5A460F999047761C99
:105390000899481E08900029F4DC641CC5E600004A
:1053A00009280100303132333435363738396162FB
:1053B00063646566000000003031323334353637BF
:1053C0003839414243444546000000002DE9FF4F73
:1053D00095B09B468946064600250FE2252877D1E1
:1053E00000242746F84A0121059400E0044316F8FA
:1053F000013F203B01FA03F01042F7D130782A2810
:1054000011D06FF02F033078A0F13002092A16D89E
:10541000059A44F0020402EB820203EB42021044BC
:10542000761C0590EFE759F8042B0592002A03DA61
:10543000504244F40054059044F00204761C307845
:105440002E2816D116F8010F44F004042A280DD096
:105450006FF02F023078A0F13003092B09D807EB49
:10546000870302EB4303C718761CF3E759F8047B64
:10547000761C30786C280FD006DC4C2817D06828B2
:105480000DD06A2814D104E0742810D07A280FD1E6
:105490000DE044F400140AE044F4801401E044F404
:1054A00040147278824202D104F58014761C761C76
:1054B000307866280BD013DC582877D009DC002818
:1054C00075D04528F6D04628F4D047281AD19DE15A
:1054D00018E0632835D0642879D0652812D195E189
:1054E000702873D008DC6728F1D069286FD06E2847
:1054F0000DD06F2806D1B5E073282CD0752875D053
:10550000782874D05A46179990476D1C75E1C4F3FA
:105510000250022809D003280DD0D9F80010042821
:105520000DD00D6009F1040967E1D9F80010EA1700
:10553000C1E90052F6E7D9F800100D80F2E70D70CE
:10554000F0E719F8041B8DF8001000208DF8010019
:10555000EA46012003E059F804AB4FF0FF30610741
:105560004FF0000102D40DE008F101018846B94274
:105570000FDA8045F8DB1AF808100029F4D108E0AA
:1055800008F1010188468142FADB1AF80810002967
:10559000F6D105985B46A0EB080721463846179AD6
:1055A00000F094FA284400EB080507E04DE029E1FB
:1055B0000DE01AF8010B5A4617999047B8F1010807
:1055C000F7D25B4621463846179A13E142E00A2299
:1055D0000092C4F302524FF0000A022A08D059F890
:1055E00004CB032A4FEAEC710AD00DE029E02AE04F
:1055F00009F1070121F00702F2E802C1914609E032
:105600000FFA8CFC4FEAEC71042A03D14FFA8CFCA0
:105610004FEAEC71002907DA0A460021DCF1000CA0
:1056200061EB02012D2202E0220504D52B228DF828
:105630000420012203E0E20701D02022F7E7904690
:1056400059E00A2102E010220DE010214FF0000A7B
:1056500000910BE010224FF0000A44F004040827E8
:10566000009203E008224FF0000A0092C4F30252B5
:10567000022A05D059F804CB0021032A08D009E0FA
:1056800009F1070121F00702F2E802C1914605E0A5
:105690001FFA8CFC042A01D10CF0FF0C4FF000081B
:1056A000220728D5702806D0009B83F0100353EA08
:1056B0000A0305D00EE040228DF80420012208E004
:1056C0005CEA010206D030228DF804208DF8050036
:1056D00002229046009B83F0080353EA0A030AD192
:1056E0005CEA010201D1620705D530228DF8042061
:1056F0004FF001087F1E582804D034A003900EA854
:1057000002900DE036A0F9E753466046009AFFF795
:1057100008F984460398825C0298401E0290027049
:105720005CEA0100F0D1029806A9081A00F1200AEB
:10573000600702D524F4803400E00127574502DDDC
:10574000A7EB0A0000E0002000EB0A01009005989A
:105750004144401A0590E00306D45B462146179A5F
:10576000059800F0B3F90544002706E001A85A4661
:10577000C05D179990476D1C7F1C4745F6DBE00321
:105780000CD55B462146179A059800F09FF9054411
:1057900004E030205A46179990476D1C0099481E26
:1057A00000900029F5DC08E0029802995A4600783A
:1057B000491C0291179990476D1CBAF10001AAF19A
:1057C000010AF1DC65E100000928010030313233C3
:1057D000343536373839616263646566000000002D
:1057E0003031323334353637383941424344454617
:1057F0000000000000F058F90544761C30780028BD
:105800007FF4ECAD19B02846BDE8F08F620700D4F4
:10581000062709F1070222F0070CFCE80223E14603
:1058200003F000485FEA080C02D00FF2702C0DE084
:105830005FEA045C02D50FF2682C07E05FEAC47CE3
:1058400002D00FF2602C01E0AFF2700C4FF0FF3885
:1058500023F00043CDF850C065280CD006DC452865
:1058600009D046281DD047283DD13DE0662818D0F4
:1058700067287ED138E00021112F01DB112000E0E4
:10588000781CCDE9000106A90EA8FFF77DFBDDE934
:105890000F010E9A03910021009207F1010A049171
:1058A0004DE04FF000400097CDE9011006A90EA889
:1058B000FFF76AFBDDE90F0203920E9B11990022AC
:1058C000DDF80CA00093049211B9791C00EB010AD9
:1058D000B7EB0A0004D4C0F1FF3007F1010A0490CD
:1058E000AAEB0700019044E0012F00DA0127002114
:1058F000112F01DD112000E03846CDE9000106A995
:105900000EA8FFF741FBDDE90F010E9A039100217C
:1059100004910092BA4621070CD40399514500DA4C
:105920008A46BAF1010F05DD009AAAF10101515C26
:10593000302908D0B84202DA10F1040F06DA01214A
:10594000CDE9011015E0AAF10101E9E7002805DC25
:10595000049901440491AAEB000102E0411C514565
:1059600000DD8A460499401A401C01904FF0004027
:105970000290200704D40198504501DBCDF8048043
:1059800000208DF84F0002980DF14F07B0F1004F45
:1059900025D02B200E9002984FF0020800280CDA38
:1059A000404202902D200E9007E00A210298FEF757
:1059B000A2FF3031029007F8011DB8F10001A8F1F3
:1059C0000108F2DC02980028EFD1791E0E980870C9
:1059D000307800F0200040F0450007F8020D12A8D2
:1059E000C01B00F107081498007800B1012000EBFB
:1059F0000A01019801EBE07105984144401A401EEC
:105A00000590E00306D45B462146179A059800F0FE
:105A10005DF805441498007818B15A4617999047D4
:105A20006D1CE00324D55B462146179A059800F0CB
:105A30004DF805441CE00498002807DBDDE903016C
:105A4000884203DD0098405C179901E017993020E7
:105A50005A469047049805F10105401C04900198AE
:105A6000401E019004D12E205A46179990476D1C74
:105A7000BAF10001AAF1010ADDDC05E017F8010B1B
:105A80005A46179990476D1CB8F10001A8F101081A
:105A9000F4DC5B462146179A0598ABE62D00000022
:105AA0002B000000200000002DE9F04104460025F5
:105AB0001E461746880404D405E039462020B04726
:105AC0006D1C641EF9D52846BDE8F0812DE9F04132
:105AD000044600251E469046C80301D5302700E045
